:100000000C9446000C9465000C9465000C946500FB
:100010000C9465000C9465000C9465000C946500CC
:100020000C9465000C9465000C9465000C946500BC
:100030000C9465000C9465000C9465000C946500AC
:100040000C9465000C9436020C9465000C946500C9
:100050000C9465000C9465000C9465000C9465008C
:100060000C9465000C9465000C9465000C9465007C
:100070000C9465000C9465000C9401010C946500CF
:100080000C9465000C9465000C94650011241FBE4F
:10009000CFEFD0E1DEBFCDBF11E0A0E0B1E0E2EBF9
:1000A000FDE200E00BBF02C007900D92AC31B1073A
:1000B000D9F711E0ACE1B1E001C01D92AD32B1075A
:1000C000E1F70E9467000C94D8160C9400001F936F
:1000D000CF93DF93CDB7DEB7A8970FB6F894DEBF06
:1000E0000FBECDBF0E94A6040E94CB0983E291E01F
:1000F0009E878D871F8682E0888B198A1A8A898954
:100100008F5F898BCE010D960E94AC0A80E090E053
:10011000A8E4B2E48B839C83AD83BE8320E030E00F
:100120004AEF54E46B817C818D819E810E94640F33
:10013000DC01CB0189879A87AB87BC8720E030E060
:1001400040E85FE369857A858B859C850E94A811CC
:1001500088230CF005C081E090E098878F831AC057
:1001600020E03FEF4FE757E469857A858B859C85D2
:100170000E943C1118160CF003C018861F820AC09A
:1001800069857A858B859C850E94B30DDC01CB0146
:1001900098878F838F8198859A83898389819A81B3
:1001A0000197F1F79A838983CE0149960E941C0A30
:1001B0001F8D812F992787FD9095A92FB92FBC01FD
:1001C000CD010E94DE116DA37EA38FA398A71123FA
:1001D00084F420E030E040E853E46DA17EA18FA1DB
:1001E00098A50E94370FDC01CB018DA39EA3AFA37E
:1001F000B8A740E06DA17EA18FA198A50E947506C9
:100200007ECF1F920F920FB60F9211242F933F9320
:100210004F935F936F937F938F939F93AF93BF930E
:10022000EF93FF93CF93DF93CDB7DEB7E0911D013E
:10023000F0911E010995DF91CF91FF91EF91BF9150
:10024000AF919F918F917F916F915F914F913F916E
:100250002F910F900FBE0F901F901895CF93DF93A3
:10026000CDB7DEB728970FB6F894DEBF0FBECDBF6F
:100270006B837C838D839E8358874F83F8948B8117
:100280009C81AD81BE81880F991FAA1FBB1F880F5B
:10029000991FAA1FBB1F880F991FAA1FBB1F880F7A
:1002A000991FAA1FBB1F9C01AD0180E092E1AAE744
:1002B000B0E0BC01CD010E946B16DA01C9010197C3
:1002C0009F709A838983E8E9F0E089819A81892F78
:1002D00099278083E9E9F0E089818083EDE9F0E006
:1002E00086E08083EAE9F0E088E180838F81988569
:1002F000009769F0AAE9B0E0EAE9F0E0808180685F
:100300008C938F81988590931E0180931D0180911D
:10031000210190912201009751F08091210190914B
:1003200022010E94C114109222011092210182E048
:1003300092E023ED31E0BC01C9010E94EC149093DE
:10034000220180932101789428960FB6F894DEBF9D
:100350000FBECDBFDF91CF910895CF93DF93CDB77F
:10036000DEB721970FB6F894DEBF0FBECDBF8983ED
:10037000EBE9F0E08081992780729070009721F47A
:1003800080911C018823A1F3ECE9F0E0898180834E
:1003900080E090E021960FB6F894DEBF0FBECDBF8F
:1003A000DF91CF910895CF93DF93CDB7DEB7239739
:1003B0000FB6F894DEBF0FBECDBF89837B836A83FF
:1003C00089810E94AD0123960FB6F894DEBF0FBE5F
:1003D000CDBFDF91CF910895CF93DF93CDB7DEB737
:1003E000EBE9F0E08081882324F080911C018823D0
:1003F000B9F3ECE9F0E08081992787FD9095DF91D2
:10040000CF910895CF93DF93CDB7DEB724970FB682
:10041000F894DEBF0FBECDBF9C838B830E94EC019E
:10042000992787FD90959A83898389819A818D3058
:10043000910551F489812B813C81B9010E94D3013E
:100440008AE090E09A83898329818B819C81BC0119
:10045000822F0E94D30189819A8124960FB6F89445
:10046000DEBF0FBECDBFDF91CF9108951F920F92D7
:100470000FB60F9211242F933F934F935F936F9377
:100480007F938F939F93AF93BF93EF93FF93CF93FC
:10049000DF93CDB7DEB7E0911F01F0912001099500
:1004A000DF91CF91FF91EF91BF91AF919F918F918C
:1004B0007F916F915F914F913F912F910F900FBE60
:1004C0000F901F901895CF93DF93CDB7DEB7249789
:1004D0000FB6F894DEBF0FBECDBF89836A834B830E
:1004E0002C83A7E3B0E0E7E3F0E0808187608C93A2
:1004F000A7E3B0E0E7E3F0E0908187EF89238C93F6
:10050000EDE2F0E089819927880F991F880F991FE4
:10051000880F991F282F8A819927880F991F880F84
:10052000991F282B8B819927880F991F8295929567
:10053000907F9827807F9827822B806580838C818D
:10054000833031F08C81843019F08C81873039F41C
:10055000ADE2B0E0EDE2F0E0808181608C938C81CF
:10056000853038F0ADE2B0E0EDE2F0E0808182600D
:100570008C938C81813031F08C81833019F08C81A7
:10058000853039F4AEE2B0E0EEE2F0E080818160E7
:100590008C9324960FB6F894DEBF0FBECDBFDF91CB
:1005A000CF910895CF93DF93CDB7DEB722970FB6E3
:1005B000F894DEBF0FBECDBF9A838983A7E3B0E076
:1005C000E7E3F0E0808188608C93A7E3B0E0E7E3A5
:1005D000F0E0908188EF89238C93EDE2F0E080E4F5
:1005E000808389819A81009769F089819A819093AB
:1005F000200180931F01ADE2B0E0EDE2F0E08081E8
:1006000080688C9322960FB6F894DEBF0FBECDBFE4
:10061000DF91CF910895CF93DF93CDB7DEB72397C6
:100620000FB6F894DEBF0FBECDBF89837B836A838C
:10063000EFE2F0E089818083EEE2F0E080818823C0
:1006400024F080911C018823B9F38A819B81009753
:1006500031F0EFE2F0E08081EA81FB81808380E08D
:1006600090E023960FB6F894DEBF0FBECDBFDF91AA
:10067000CF910895CF93DF93CDB7DEB726970FB60E
:10068000F894DEBF0FBECDBF9A838983E1E7F0E027
:10069000108280E790E09C838B8389819A819C0102
:1006A000442737FD4095542F80E49FE1A0E0B0E05F
:1006B000BC01CD010E946B16DA01C90140979E83EF
:1006C0008D83ED81FE81FF232CF48D819E81019627
:1006D0009E838D838D819E8195958795EB81FC818D
:1006E0008083E4E7F0E084E0808326960FB6F894F8
:1006F000DEBF0FBECDBFDF91CF910895CF93DF93C3
:10070000CDB7DEB727970FB6F894DEBF0FBECDBFCB
:100710008C836D838C81880F8C838D81882319F065
:100720008C8181608C831B821A8244C0E4E7F0E0F4
:1007300084EA8083E4E7F0E08081882324F08091DC
:100740001C018823B9F3E1E7F0E0908188EF892369
:1007500089838981883019F08981803131F5E3E717
:10076000F0E08C818083E4E7F0E084E88083E4E7D4
:10077000F0E08081882324F080911C018823B9F364
:10078000E1E7F0E0908188EF892389838D818823D8
:1007900019F48981883131F08D81882331F0898184
:1007A000803419F41F821E8214C08A819B810196B5
:1007B0009B838A838A819B8123E0883E92072CF465
:1007C00080911C01882309F4B1CF81E090E09F83E0
:1007D0008E838E819F8127960FB6F894DEBF0FBE61
:1007E000CDBFDF91CF910895CF93DF93CDB7DEB723
:1007F00021970FB6F894DEBF0FBECDBF898360E0AE
:1008000089810E947E03992721960FB6F894DEBF56
:100810000FBECDBFDF91CF910895CF93DF93CDB7BA
:10082000DEB723970FB6F894DEBF0FBECDBF898326
:10083000E3E7F0E089818083E4E7F0E084E8808307
:10084000E4E7F0E08081882324F080911C01882374
:10085000B9F3E1E7F0E080819927887F90708832D2
:10086000910529F081E090E09B838A8302C01B827E
:100870001A828A819B8123960FB6F894DEBF0FBE41
:10088000CDBFDF91CF910895CF93DF93CDB7DEB782
:1008900021970FB6F894DEBF0FBECDBF898361E00C
:1008A00089810E947E03992721960FB6F894DEBFB6
:1008B0000FBECDBFDF91CF910895CF93DF93CDB71A
:1008C000DEB725970FB6F894DEBF0FBECDBF9A8373
:1008D00089836B838B81882329F0E4E7F0E084E847
:1008E000808304C0E4E7F0E084EC8083E4E7F0E098
:1008F0008081882324F080911C018823B9F38091A2
:100900001C01882329F081E090E09D838C8308C03E
:10091000E3E7F0E08081E981FA8180831D821C8217
:100920008C819D8125960FB6F894DEBF0FBECDBF9A
:10093000DF91CF910895CF93DF93CDB7DEB7E4E792
:10094000F0E084E98083DF91CF910895CF93DF9326
:10095000CDB7DEB7AAE3B0E0EAE3F0E080818160E2
:100960008C93ABE3B0E0EBE3F0E0808181608C93AB
:10097000AAE3B0E0EAE3F0E080818D7F8C93AAE304
:10098000B0E0EAE3F0E080818B7F8C93AAE3B0E0F3
:10099000EAE3F0E08081877F8C93AAE3B0E0EAE3AA
:1009A000F0E0808180618C93AAE3B0E0EAE3F0E0BC
:1009B000808180628C93AAE3B0E0EAE3F0E080817A
:1009C00080648C93AAE3B0E0EAE3F0E08081806881
:1009D0008C93A4E3B0E0E4E3F0E080818E7F8C931D
:1009E000A4E3B0E0E4E3F0E080818D7F8C93A4E3A6
:1009F000B0E0E4E3F0E080818B7F8C93A4E3B0E08F
:100A0000E4E3F0E08081877F8C9324E040E060E0C5
:100A100080E00E94630282E390E00E943A030E9419
:100A2000630641E061E081E00E941905DF91CF910A
:100A30000895CF93DF93CDB7DEB727970FB6F8941D
:100A4000DEBF0FBECDBF8B836C834D838C81992716
:100A5000880F991F982F8B81292F282B8C819927FC
:100A6000880F991F880F991F822B88648A838A8137
:100A70000E94F40389838981813029F481E090E028
:100A80009F838E8336C081E00E940D048983898113
:100A9000813029F481E090E09F838E832AC080E634
:100AA0000E940D0489838981813029F481E090E0DE
:100AB0009F838E831EC00E949B048A810E94F40340
:100AC00089838981813029F481E090E09F838E833E
:100AD00010C080E00E940D0489838981813029F44F
:100AE00081E090E09F838E8304C00E949B041F825C
:100AF0001E828E819F8127960FB6F894DEBF0FBEAF
:100B0000CDBFDF91CF910895CF93DF93CDB7DEB7FF
:100B10002B970FB6F894DEBF0FBECDBF9E838D839B
:100B20006F834887298788859927880F991F982F71
:100B30008F81292F282B88859927880F991F880F47
:100B4000991F822B88648A838A810E94F403898397
:100B50008981813029F481E090E09B878A8775C084
:100B600080E00E940D0489838981813029F481E02D
:100B700090E09B878A8769C00E949B048A810E94BB
:100B8000440489838981813029F481E090E09B8746
:100B90008A875BC0CE010396019660E00E945D04E7
:100BA00089838981813029F481E090E09B878A875D
:100BB0004CC0CE01039661E00E945D048983898167
:100BC000813029F481E090E09B878A873EC00E94B3
:100BD0009B048B819C81992374F48B819C819595D6
:100BE0008795959587959595879595958795906F18
:100BF0009C838B830CC08B819C8195958795959563
:100C0000879595958795959587959C838B838B8103
:100C10009C81AA2797FDA095BA2FBC01CD010E9407
:100C2000DE11DC01CB0120E030E040E85DE3BC01F7
:100C3000CD010E94640FDC01CB01ED81FE81808338
:100C40009183A283B3831B861A868A859B852B9604
:100C50000FB6F894DEBF0FBECDBFDF91CF910895E0
:100C6000CF93DF93CDB7DEB723970FB6F894DEBFEF
:100C70000FBECDBF89836A834B83ABE3B0E0EBE368
:100C8000F0E080818E7F8C9360E070E089810E942B
:100C90000B0360E070E08A810E940B0360E070E06B
:100CA0008B810E940B03ABE3B0E0EBE3F0E08081CB
:100CB00081608C9323960FB6F894DEBF0FBECDBF34
:100CC000DF91CF910895CF93DF93CDB7DEB78091B9
:100CD0000A0190910A0120910A01482F692F822F61
:100CE0000E943006DF91CF910895CF93DF93CDB767
:100CF000DEB767970FB6F894DEBF0FBECDBF6C832B
:100D00007D838E839F8348878885282F33273F8B59
:100D10002E8B8E899F898130910509F45FC12E89C0
:100D20003F892230310509F463C28E899F8900977B
:100D300009F01FC320E030EC49E754E46C817D8169
:100D40008E819F810E943C1118166CF020E030E0EB
:100D500046EC52EC6C817D818E819F810E94A811AE
:100D600088230CF005C021E030E03D8B2C8B08C3BC
:100D700020E030E040E050E06C817D818E819F81F9
:100D80000E943C1118160CF066C020E030E048ECE0
:100D900052E46C817D818E819F810E948210DC01F2
:100DA000CB0120E030E040E050E0BC01CD010E94EA
:100DB0003C1118160CF01BC020E030E048EC52E467
:100DC0006C817D818E819F810E948210DC01CB012C
:100DD0001B8A20E030E040E85FE3BC01CD010E94C7
:100DE000721188230CF41DC031E03B8B1AC020E047
:100DF00030E048EC52EC6C817D818E819F810E94B5
:100E00008210DC01CB011B8A20E030E040E85FE388
:100E1000BC01CD010E94721188230CF402C081E054
:100E20008B8B9B899923A1F020E030E048EC52E4C1
:100E30006C817D818E819F810E948210DC01CB01BB
:100E4000BC01CD010E94B30DDC01CB018B8305C039
:100E50008AE08B8302C08BE08B8320E030E040E2AD
:100E600051E46C817D818E819F810E948210DC0122
:100E7000CB0120E030E040E050E0BC01CD010E9419
:100E80003C1118160CF01BC020E030E040E251E4A9
:100E90006C817D818E819F810E948210DC01CB015B
:100EA0001A8A20E030E040E85FE3BC01CD010E94F7
:100EB000721188230CF41DC021E02A8B1AC020E097
:100EC00030E040E251EC6C817D818E819F810E94F7
:100ED0008210DC01CB011A8A20E030E040E85FE3B9
:100EE000BC01CD010E94721188230CF402C031E0D4
:100EF0003A8B8A898823E9F16C817D818E819F817B
:100F00000E944712DC01CB0124E630E0B9010E94C7
:100F100058168A309105ACF06C817D818E819F815D
:100F20000E944712DC01CB0124E630E0B9010E94A7
:100F300058162AE030E0B9010E945816CB01898B7F
:100F400015C06C817D818E819F810E944712DC01DA
:100F5000CB0124E630E0B9010E9458162AE030E0C7
:100F6000B9010E945816CB018195898B99899A8382
:100F700002C08AE08A836C817D818E819F810E947C
:100F80004712DC01CB012AE030E0B9010E9458167B
:100F9000988B8F872F85388933233CF48F859889E8
:100FA000909581959F4F988B8F879F859983898195
:100FB0009927FC01E050FF4F20818A819927FC018D
:100FC000E050FF4F30818B819927FC01E050FF4FAB
:100FD0008081422F632F0E943006D0C120E030E094
:100FE00048EC52E46C817D818E819F810E94721158
:100FF00088236CF420E030E040E151EC6C817D818D
:101000008E819F810E94A81188230CF005C021E0E9
:1010100030E03D8B2C8BB4C120E030E040E050E06C
:101020006C817D818E819F810E943C1118160CF08D
:1010300066C020E030E040E251E46C817D818E8129
:101040009F810E948210DC01CB0120E030E040E073
:1010500050E0BC01CD010E943C1118160CF01BC0E1
:1010600020E030E040E251E46C817D818E819F81FF
:101070000E948210DC01CB011E8620E030E040E8B7
:101080005FE3BC01CD010E94721188230CF41DC0E6
:1010900031E03E871AC020E030E040E251EC6C8144
:1010A0007D818E819F810E948210DC01CB011E8692
:1010B00020E030E040E85FE3BC01CD010E94721106
:1010C00088230CF402C081E08E879E859923A1F0CD
:1010D00020E030E040E251E46C817D818E819F818F
:1010E0000E948210DC01CB01BC01CD010E94B30D36
:1010F000DC01CB018B8305C08AE08B8302C08BE0CF
:101100008B836C817D818E819F810E944712DC01DF
:10111000CB012AE030E0B9010E9458169D878C87E8
:101120002C853D8533233CF48C859D859095819558
:101130009F4F9D878C879C859A8320E030E040E01C
:1011400050E06C817D818E819F810E943C11181638
:101150000CF019C020E030E040E251E46C817D8168
:101160008E819F810E94640FDC01CB01BC01CD0107
:101170000E944712DC01CB012AE030E0B9010E9455
:1011800058168B8718C020E030E040E251EC6C81AB
:101190007D818E819F810E94640FDC01CB01BC01A7
:1011A000CD010E944712DC01CB012AE030E0B901F9
:1011B0000E9458168B872B85298389819927FC01EA
:1011C000E050FF4F30818A819927FC01E050FF4FAA
:1011D000908180910C01292F28238B819927FC0174
:1011E000E050FF4F8081432F622F0E943006C6C01F
:1011F00020E030E040E251E46C817D818E819F816E
:101200000E94721188236CF420E030E040E050E04E
:101210006C817D818E819F810E94A81188230CF0B2
:1012200005C081E090E09D8B8C8BAAC06C817D8194
:101230008E819F810E94B30DDC01CB018B8320E066
:1012400030E040E050E06C817D818E819F810E9482
:101250003C1118160CF019C020E030E040E251E4D7
:101260006C817D818E819F810E94640FDC01CB01A6
:10127000BC01CD010E944712DC01CB012AE030E025
:10128000B9010E9458168A8718C020E030E040E279
:1012900051EC6C817D818E819F810E94640FDC0105
:1012A000CB01BC01CD010E944712DC01CB012AE039
:1012B00030E0B9010E9458168A879A859A8320E007
:1012C00030E040E050E06C817D818E819F810E9402
:1012D0003C1118160CF019C020E030E048EC52E444
:1012E0006C817D818E819F810E94640FDC01CB0126
:1012F000BC01CD010E944712DC01CB012AE030E0A5
:10130000B9010E945816898718C020E030E048ECE7
:1013100052EC6C817D818E819F810E94640FDC0183
:10132000CB01BC01CD010E944712DC01CB012AE0B8
:1013300030E0B9010E94581689872985298389815F
:101340009927FC01E050FF4F30818A819927FC01E9
:10135000E050FF4F20818B819927FC01E050FF4F27
:10136000908180910C018923432F622F0E943006C7
:1013700005C081E090E09D8B8C8B02C01D8A1C8A89
:101380008C899D8967960FB6F894DEBF0FBECDBFDE
:10139000DF91CF910895CF93DF93CDB7DEB7A4E36C
:1013A000B0E0E4E3F0E0808180628C93A4E3B0E0FD
:1013B000E4E3F0E080818F7E8C9324E040E060E005
:1013C00080E00E9463020E94930C60E08CE00E9427
:1013D000AD0C60E08DE00E94AD0C60E08AE20E94FE
:1013E000AD0C60E989E20E94AD0C62E088E20E94E7
:1013F000AD0C60E080E60E94AD0C60E080E70E94EA
:10140000AD0C60E084E20E94AD0C60E085E20E94D9
:10141000AD0C60E086E20E94AD0C60E087E20E94C5
:10142000AD0C61E08BE20E94AD0C68E08FE00E94A1
:10143000AD0CDF91CF910895CF93DF93CDB7DEB799
:1014400024970FB6F894DEBF0FBECDBF9C838B836D
:10145000E3E3F0E0808199278071907095958795FE
:10146000959587959595879595958795009781F79B
:10147000A5E3B0E0E5E3F0E080818F7D8C9360E050
:1014800070E080E90E940B03CE010296BC0180E06F
:101490000E940B038A819927880F991F880F991F33
:1014A000880F991FEB81FC8191838083CE01029686
:1014B000BC0180E00E940B03EB81FC812081318123
:1014C0008A818295869587709927822B932BEB8151
:1014D000FC8191838083CE010296BC0180E00E9452
:1014E0000B03CE010296BC0180E00E940B03CE01EB
:1014F0000296BC0180E00E940B038A818F70EB8111
:10150000FC818383198214C0CE010296BC0180E065
:101510000E940B038981282F33274A818B819C816C
:10152000820F931FFC013496408389818F5F8983EA
:10153000EB81FC8193818981891730F340E061E080
:101540008CE20E947B0D24960FB6F894DEBF0FBE8E
:10155000CDBFDF91CF910895CF93DF93CDB7DEB7A5
:1015600024970FB6F894DEBF0FBECDBF9C838B834C
:10157000EB81FC8183818A83EB81FC818081918175
:10158000969587959695879596958795682F81E38B
:101590000E94AD0CEB81FC818081918187708295E6
:1015A000880F807E682F82E30E94AD0CEB81FC8166
:1015B0008281882339F08A818064682F85E30E94C4
:1015C000AD0C1CC06A8185E30E94AD0C198212C06B
:1015D0008981282F33278B819C81820F931FFC01E7
:1015E0003496908189818A5C692F0E94AD0C898133
:1015F0008F5F898399818A81981750F380E090E00A
:101600000E940B0B24960FB6F894DEBF0FBECDBF21
:10161000DF91CF910895CF93DF93CDB7DEB72297B7
:101620000FB6F894DEBF0FBECDBF9A838983898140
:101630009A8183309105F0F4A5E3B0E0E5E3F0E0B2
:1016400080818F7D8C9329813A8181E090E002C076
:10165000880F991F2A95E2F7982F80E8892B60E080
:1016600070E00E940B03A5E3B0E0E5E3F0E08081C9
:1016700080628C9322960FB6F894DEBF0FBECDBF6A
:10168000DF91CF910895CF93DF93CDB7DEB7229747
:101690000FB6F894DEBF0FBECDBF9A8389838981D0
:1016A0009A81969587959695879596958795682FB3
:1016B00080E20E94AD0C898187708295880F807EC0
:1016C000682F81E20E94AD0C22960FB6F894DEBF1F
:1016D0000FBECDBFDF91CF910895CF93DF93CDB7EC
:1016E000DEB722970FB6F894DEBF0FBECDBF9A8348
:1016F000898389819A819695879596958795969500
:101700008795682F84E20E94AD0C8981877082954D
:10171000880F807E682F85E20E94AD0C22960FB65E
:10172000F894DEBF0FBECDBFDF91CF910895CF9368
:10173000DF93CDB7DEB722970FB6F894DEBF0FBEAA
:10174000CDBF9A83898389819A819695879596954D
:10175000879596958795682F80E00E94AD0C8981CA
:1017600087708295880F807E682F81E00E94AD0C83
:1017700022960FB6F894DEBF0FBECDBFDF91CF919A
:101780000895CF93DF93CDB7DEB722970FB6F894C5
:10179000DEBF0FBECDBF9A83898389819A819695DA
:1017A00087959695879596958795682F84E00E94F2
:1017B000AD0C898187708295880F807E682F85E0C7
:1017C0000E94AD0C22960FB6F894DEBF0FBECDBFBF
:1017D000DF91CF910895CF93DF93CDB7DEB72297F6
:1017E0000FB6F894DEBF0FBECDBF9A83898389817F
:1017F0009A81969587959695879596958795682F62
:1018000088E00E94AD0C898187708295880F807E68
:10181000682F89E00E94AD0C22960FB6F894DEBFC7
:101820000FBECDBFDF91CF910895CF93DF93CDB79A
:10183000DEB722970FB6F894DEBF0FBECDBF9A83F6
:10184000898389819A8196958795969587959695AE
:101850008795682F80E10E94AD0C89818770829501
:10186000880F807E682F81E10E94AD0C22960FB612
:10187000F894DEBF0FBECDBFDF91CF910895CF9317
:10188000DF93CDB7DEB722970FB6F894DEBF0FBE59
:10189000CDBF9A83898389819A81969587959695FC
:1018A000879596958795682F84E10E94AD0C898174
:1018B00087708295880F807E682F85E10E94AD0C2D
:1018C00022960FB6F894DEBF0FBECDBFDF91CF9149
:1018D0000895CF93DF93CDB7DEB722970FB6F89474
:1018E000DEBF0FBECDBF9A83898389819A81969589
:1018F00087959695879596958795682F88E10E949C
:10190000AD0C898187708295880F807E682F89E170
:101910000E94AD0C22960FB6F894DEBF0FBECDBF6D
:10192000DF91CF910895CF93DF93CDB7DEB7A5E3D5
:10193000B0E0E5E3F0E080818F7D8C9360E070E0C3
:1019400080EC0E940B03A5E3B0E0E5E3F0E08081CA
:1019500080628C93DF91CF910895CF93DF93CDB7C1
:10196000DEB722970FB6F894DEBF0FBECDBF8983D6
:101970006A83A5E3B0E0E5E3F0E080818F7D8C939E
:1019800060E070E082E00E940B0360E070E089811B
:101990000E940B0360E070E08A810E940B03A5E3C4
:1019A000B0E0E5E3F0E0808180628C9322960FB690
:1019B000F894DEBF0FBECDBFDF91CF910895CF93D6
:1019C000DF93CDB7DEB722970FB6F894DEBF0FBE18
:1019D000CDBF8A83A5E3B0E0E5E3F0E080818F7DB1
:1019E0008C9360E070E083E00E940B0360E070E0A5
:1019F0008A810E940B03CE010196BC0180E00E9407
:101A00000B03A5E3B0E0E5E3F0E0808180628C9316
:101A10008981992722960FB6F894DEBF0FBECDBFFD
:101A2000DF91CF910895CF93DF93CDB7DEB72197A4
:101A30000FB6F894DEBF0FBECDBFA5E3B0E0E5E37F
:101A4000F0E080818F7D8C9360E070E080EA0E94FE
:101A50000B03CE010196BC0180E00E940B03CE0176
:101A60000196BC0180E00E940B03A5E3B0E0E5E332
:101A7000F0E0808180628C938981992721960FB64E
:101A8000F894DEBF0FBECDBFDF91CF910895CF9305
:101A9000DF93CDB7DEB721970FB6F894DEBF0FBE48
:101AA000CDBFA5E3B0E0E5E3F0E080818F7D8C93CE
:101AB00060E070E080EB0E940B03CE010196BC0158
:101AC00080E00E940B03CE010196BC0180E00E94E1
:101AD0000B03A5E3B0E0E5E3F0E0808180628C9346
:101AE0008981992721960FB6F894DEBF0FBECDBF2E
:101AF000DF91CF910895CF93DF93CDB7DEB72397D2
:101B00000FB6F894DEBF0FBECDBF89836A834B83C7
:101B1000A5E3B0E0E5E3F0E080818F7D8C9360E0A9
:101B200070E083E00E940B0360E070E089810E9416
:101B30000B0360E070E08A810E940B0360E070E0BC
:101B40008B810E940B03A5E3B0E0E5E3F0E0808128
:101B500080628C9323960FB6F894DEBF0FBECDBF84
:101B6000DF91CF910895EF92FF920F931F937B0126
:101B70008C0120E030E040E05FE40E947211882395
:101B80007CF020E030E040E05FE4C801B7010E9453
:101B9000060F0E944712605070408040904804C079
:101BA000C801B7010E9447121F910F91FF90EF905B
:101BB0000895A0E0B0E0EFEDFDE00C94A516FC0167
:101BC0006A019081923008F41BC1DB018C91823054
:101BD00080F0943061F4843009F012C19181EB01FE
:101BE0008981981709F40CC1EDE0F1E009C1843056
:101BF00011F4FB0105C1823091F4923009F000C16B
:101C0000EA01DF0188E00D9009928150E1F78181BE
:101C1000FB0191818923E6018983F601F1C09230AD
:101C200041F362807380EB018A809B80E480F580C1
:101C3000068117812C813D814E815F815301A81857
:101C4000B908C501B7FCABC080970CF457C0861427
:101C500097040CF4BEC03401EE24FF248701918167
:101C6000FB018181981709F4A6C0992309F49CC04F
:101C70002E193F09400B510B57FDB0C0E6011982E8
:101C80007B826A82F6012483358346835783E6018B
:101C90002C813D814E815F8179018A01DA01C90180
:101CA0000197A109B1098F5F9F4FAF4FBF43F8F470
:101CB000E6016A817B81A8019701220F331F441F2F
:101CC000551F6150704079018A01DA01C9010197FD
:101CD000A109B1098F5F9F4FAF4FBF4360F3E6018A
:101CE0007B836A83F601248335834683578383E0AD
:101CF000D6018C9357FD39C0F60182C08614970433
:101D0000B4F4C0E0D0E0DA01C90181709070A07035
:101D1000B0705695479537952795282B392B4A2B28
:101D20005B2B2196AC16BD0671F78A0C9B1C6814C0
:101D300079040CF094CFC0E0D0E05401A618B708A5
:101D4000D801C70181709070A070B070169507958A
:101D5000F794E794E82AF92A0A2B1B2B2196AC1654
:101D6000BD0671F76A0C7B1C7ACFDA01C901B69502
:101D7000A795979587952170307040705070282BEB
:101D8000392B4A2B5B2BE6012C833D834E835F83EB
:101D90008A819B8101969B838A83F60131C08827C3
:101DA00099278A199B0950CFE21AF30A040B150BE5
:101DB000A801970161CFE60199837B826A822E0D8B
:101DC0003F1D401F511FF6012483358346835783EF
:101DD0008ECF20E030E040E050E041CF81E0E601EE
:101DE00089837B826A8250954095309521953F4F3B
:101DF0004F4F5F4FF601248335834683578347CF88
:101E0000CF01EEE0CDB7DEB70C94C116A0E2B0E092
:101E1000ECE0FFE00C94AD1669837A838B839C839E
:101E20002D833E834F83588789E1E82EF12CEC0EF9
:101E3000FD1EB701CE0101960E94B9138E010F5EFF
:101E40001F4FB801CE0105960E94B9138A8991E00F
:101E500089278A8BAE01475F5F4FB801C7010E9497
:101E6000D90D0E949712E6E0A0960C94C916A0E244
:101E7000B0E0EDE3FFE00C94AD1669837A838B83C9
:101E80009C832D833E834F83588799E1E92EF12C63
:101E9000EC0EFD1EB701CE0101960E94B9138E0112
:101EA0000F5E1F4FB801CE0105960E94B913AE0117
:101EB000475F5F4FB801C7010E94D90D0E9497127A
:101EC000E6E0A0960C94C916A0E2B0E0EAE6FFE0D6
:101ED0000C94A11669837A838B839C832D833E8324
:101EE0004F8358878E01075E1F4FB801CE010196C0
:101EF0000E94B913F1E1EF2EF12CEC0EFD1EB7019B
:101F0000CE0105960E94B913898D823078F09989A7
:101F1000923040F420E09A8D8A89981321E02A8B30
:101F2000B701E9C0843051F4923061F020E09A8D1D
:101F30008A89981321E02A8FB801DDC0943029F4F2
:101F4000823041F76DE071E0D6C0823079F3923093
:101F500009F32D8D3E8D4F8D58A18D899E89AF89B6
:101F6000B88D222433242101AA24BB246501EE2448
:101F7000FF24870160E070E00DC06F5F7F4F60322B
:101F8000710599F1880F991FAA1FBB1F5695479598
:101F90003795279520FF19C0280E391E4A1E5B1E53
:101FA000662477244301281639064A065B0628F47E
:101FB000E1E06E2E712C812C912CAE0CBF1CC01E4A
:101FC000D11EA60CB71CC81CD91CEE0CFF1C001F90
:101FD000111FB7FFD2CFE1E06E2E712C812C912C16
:101FE000E628F72808291929C8CF8B8D9C8D2B89C5
:101FF0003C89820F931F02969C878B871A869A8D45
:102000008A89981711F081E08A87D7FE17C08B85DF
:102010009C85A0FE0CC0569447943794279420E0EA
:1020200030E040E050E8222A332A442A552AD69448
:10203000C794B794A79401969C878B8730E0A3162A
:1020400030E0B30630E0C30630E4D30618F58B85E4
:102050009C850EC0220C331C441C551C019720E0AB
:10206000A21620E0B20620E0C20620E4D20680F4E8
:10207000AA0CBB1CCC1CDD1C57FEECCF31E0632E40
:10208000712C812C912CA628B728C828D928E2CFFA
:102090009C878B87D601C5018F779070A070B07038
:1020A00080349105A105B10551F0AD86BE86CF867D
:1020B000D88A83E08987BE01675F7F4F1CC0A7FC79
:1020C000F4CF211431044104510479F380E490E009
:1020D000A0E0B0E0A80EB91ECA1EDB1E80E8682E84
:1020E0008FEF782E8FEF882E8FEF982EA620B720B7
:1020F000C820D920DACFCB010E949712E2E1A09646
:102100000C94BD16A8E1B0E0E8E8F0E10C94A71645
:1021100069837A838B839C832D833E834F83588787
:10212000B1E18B2E912C8C0E9D1EB401CE01019637
:102130000E94B9138E01075F1F4FB801CE010596AB
:102140000E94B9132989223008F46AC039853230D7
:1021500008F468C08A899A8589278A8B243009F413
:1021600063C0223009F460C0343041F41D8A1E8AF5
:102170001F8A188E1C8A1B8AB40177C0323009F47A
:1021800058C06B897C898B859C85681B790B7C8BFF
:102190006B8B2D893E894F89588DED84FE840F8588
:1021A00018892E153F054007510740F4220F331FB1
:1021B000441F551F615070407C8B6B8B80E090E01A
:1021C000A0E0B0E4AA24BB24650160E070E02E1515
:1021D0003F054007510740F0A82AB92ACA2ADB2A3E
:1021E0002E193F09400B510BB695A79597958795EA
:1021F000220F331F441F551F6F5F7F4F6F317105D3
:1022000031F7D601C5018F779070A070B07080341F
:102210009105A105B10589F0AD8ABE8ACF8AD88E15
:10222000B40123C0B80121C03217D1F76DE071E0CD
:102230001CC084E0898BB40118C0A7FCEDCF211528
:1022400031054105510541F380E490E0A0E0B0E0A4
:10225000A80EB91ECA1EDB1E80E89FEFAFEFBFEFCE
:10226000A822B922CA22DB22D7CFCB010E94971223
:10227000ECE068960C94C316A8E1B0E0E2E4F1E16A
:102280000C94AD1669837A838B839C832D833E8364
:102290004F83588781E1E82EF12CEC0EFD1EB7012B
:1022A000CE0101960E94B9138E01075F1F4FB8013E
:1022B000CE0105960E94B9138989823018F42FEF58
:1022C0003FEF0BC089858230D0F3B801C7010E946F
:1022D0005814282F332727FD3095C901E6E068966A
:1022E0000C94C916A8E1B0E0E8E7F1E10C94AD1652
:1022F00069837A838B839C832D833E834F835887A6
:1023000081E1E82EF12CEC0EFD1EB701CE01019605
:102310000E94B9138E01075F1F4FB801CE010596C9
:102320000E94B9138989823018F42FEF3FEF0BC058
:1023300089858230D0F3B801C7010E945814282F34
:10234000332727FD3095C901E6E068960C94C9163D
:10235000A8E1B0E0EEEAF1E10C94AD1669837A836E
:102360008B839C832D833E834F83588781E1E82EA6
:10237000F12CEC0EFD1EB701CE0101960E94B9139F
:102380008E01075F1F4FB801CE0105960E94B91359
:102390008989823018F08985823018F421E030E094
:1023A00008C0B801C7010E945814282F332727FD01
:1023B0003095C901E6E068960C94C916A8E0B0E033
:1023C000E4EEF1E10C94B0169B01AC0183E089834B
:1023D0001A8257FD51C0211531054105510539F4C7
:1023E00082E08983CE0101960E9497124CC0EEE1F3
:1023F000F0E0FC83EB838A818823C9F1203010E070
:10240000310710E0410710E85107C9F188279927E3
:10241000DC01821B930BA40BB50B8D839E83AF83D2
:10242000B8872D813E814F815885203080E0380764
:1024300080E0480780E45807A8F6EB81FC81DA01C8
:10244000C901880F991FAA1FBB1F31979C01AD01BD
:10245000803010E0910710E0A10710E4B10778F395
:10246000FC83EB838D839E83AF83B887BBCF2D83A3
:102470003E834F835887D5CF81E08A83ACCF60E01D
:1024800070E080E09FECE3E028960C94CC16ACE082
:10249000B0E0EDE4F2E10C94B11669837A838B83AA
:1024A0009C83BE016B5F7F4FCE0101960E94B913E2
:1024B0008D81823061F0823050F0843069F48E81F9
:1024C000882359F52FEF3FEF4FEF5FE72AC020E059
:1024D00030E040E050E025C02F81388537FDF7CF50
:1024E0002F31310564F78EE190E0821B930B298533
:1024F0003A854B855C8504C0569547953795279559
:102500008A95D2F78E81882361F050954095309559
:1025100021953F4F4F4F5F4F04C020E030E040E037
:1025200050E8CA01B901E2E02C960C94CD164F9206
:102530005F926F927F928F929F92AF92BF92DF9243
:10254000EF92FF920F931F9320E030E040E050E0C5
:10255000FC01E480F58006811781D1808081823082
:1025600038F4D801C701A061AF77B0706FEFD9C060
:10257000843009F46EC0823009F471C0E114F104B2
:102580000105110509F46BC0828193816FEF8238D8
:1025900096070CF06AC062E87FEF681B790B6A311E
:1025A00071050CF080C047015801062E04C0B69496
:1025B000A794979487940A94D2F74424552432011F
:1025C00081E090E0A0E0B0E004C0880F991FAA1F4E
:1025D000BB1F6A95D2F70197A109B109E822F92238
:1025E0000A231B23E114F1040105110529F061E020
:1025F000462E512C612C712C85017401E428F5289C
:1026000006291729D801C7018F779070A070B07084
:1026100080349105A105B10509F457C0D801C7015F
:10262000CF96A11DB11D60E070E08030E0E09E0714
:10263000E0E0AE07E0E4BE0710F061E070E027E004
:10264000B695A795979587952A95D1F7AF77B070EE
:1026500068C080E090E0A0E0B0E06FEF62C080E092
:1026600090E0A0E0B0E060E05CC0803891058CF7BD
:10267000BC0161587F4FD801C7018F779070A0705F
:10268000B07080349105A105B105A1F08FE390E011
:10269000A0E0B0E0E80EF91E0A1F1B1F17FD28C0BE
:1026A000D801C701CCCF60E070E080E090E0A0E00E
:1026B000B0E0CCCFE7FEF2CF80E490E0A0E0B0E065
:1026C000E80EF91E0A1F1B1FE9CFE7FC18C080E0C7
:1026D00090E060E0E61660E0F60660E0060760E481
:1026E000160710F081E090E0BC01D801C701A7CF28
:1026F00016950795F794E7946F5F7F4FD1CFD80178
:10270000C701805C9F4FAF4FBF4F60E070E08030EB
:10271000E0E09E07E0E0AE07E0E4BE0708F48FCFFC
:102720008CCF282F392F9A2F9F77842F8078892B51
:10273000962F9795992797958F77482F492B6695D0
:10274000852F8078862BD794DD24D7948F77582FC8
:102750005D29CA01B9011F910F91FF90EF90DF90A1
:10276000BF90AF909F908F907F906F905F904F90B1
:102770000895FC01DB01208131819281492F4F773F
:1027800050E0991F9927991F8381682F660F692B45
:10279000881F8827881FFD018183662309F049C0AF
:1027A000211531054105510509F470C082E89FEFFC
:1027B000FD0193838283220F331F441F551F220F75
:1027C000331F441F551F220F331F441F551F220F55
:1027D000331F441F551F220F331F441F551F220F45
:1027E000331F441F551F220F331F441F551F83E003
:1027F0008C932030F0E03F07F0E04F07F0E45F07F4
:1028000090F482E89FEF220F331F441F551F01975A
:10281000203060E0360760E0460760E4560798F332
:10282000FD0193838283FD0124833583468357838F
:1028300008956F3F71F1862F99278F579040FD01C2
:102840009383828383E08C93220F331F441F551F91
:10285000220F331F441F551F220F331F441F551FC4
:10286000220F331F441F551F220F331F441F551FB4
:10287000220F331F441F551F220F331F441F551FA4
:1028800050642483358346835783089582E08C9374
:102890000895211531054105510519F484E08C9303
:1028A000089544FD02C01C92BECF81E08C93BBCF43
:1028B000EF92FF920F931F93CF93DF93FC01DB0105
:1028C0008081823050F09C91923038F0843041F415
:1028D0009430B1F08181882381F461E070E04BC0D5
:1028E0009430E9F18230A1F09230A1F36181ED01E1
:1028F0008981681791F0662381F36FEF7FEF3BC00A
:10290000EB018981682F77278181681B710933C0AA
:10291000923059F560E070E02EC022813381ED01E4
:102920008A819B818217930734F3281739079CF01B
:10293000E480F58006811781FD012481358146817F
:1029400057812E153F0540075107A8F2E216F306FE
:1029500004071507F8F6662309F0BFCFCECFFB01B9
:102960008181882309F0B9CFC8CFEB018981882301
:1029700009F0B3CFC2CFCB01E6E0CDB7DEB70C9400
:10298000C916FC01838187FF24C0809123019091A7
:1029900024018E179F0721F4109224011092230125
:1029A00080912501909126018E179F0721F41092A6
:1029B00026011092250180912701909128018E1700
:1029C0009F0721F41092280110922701CF010E9445
:1029D000FB1580E090E00895EF92FF920F931F9314
:1029E000CF93DF938C017B01892B11F4672BD1F1FD
:1029F0006EE070E081E090E00E943C15FC010097E1
:102A000089F1DC0180E88383E114F10471F0F3863D
:102A1000E28681E883838091230190912401892BB0
:102A200021F4F0932401E093230101151105E1F055
:102A30001187008783818260838380912501909133
:102A40002601892B89F4F0932601E09325018091DA
:102A5000270190912801892B39F4F0932801E09304
:102A6000270102C0A0E0B0E0CD01DF91CF911F911E
:102A70000F91FF90EF9008950F931F93CF93DF93E3
:102A8000869F8001879F100D969F100D1124C8010D
:102A90000E945815EC01009729F0A80160E070E051
:102AA0000E945116CE01DF91CF911F910F91089591
:102AB000CF93DF93AC01029710F442E050E0A09175
:102AC0002B01B0912C01FD01C0E0D0E020E030E00E
:102AD00020C0808191818417950769F48281938158
:102AE000209719F09B838A8304C090932C018093D4
:102AF0002B01CF0132C04817590738F42115310591
:102B000019F08217930708F49C01EF010280F3810A
:102B1000E02D3097F1F62115310589F1C901841BAB
:102B2000950B049708F4A901E0E0F0E026C08D9130
:102B30009C91119782179307E9F44817590779F484
:102B4000ED018A819B81309719F09383828304C0C1
:102B500090932C0180932B01CD01029649C0841BD8
:102B6000950BFD01E80FF91F4193519302978D9347
:102B70009C933AC0FD01A281B3811097C1F6809168
:102B8000290190912A01892B41F48091170190919C
:102B9000180190932A018093290120911901309105
:102BA0001A012115310541F42DB73EB78091150169
:102BB00090911601281B390BE0912901F0912A010F
:102BC0002E1B3F0B2417350788F0CA0102962817E1
:102BD000390760F0CF01840F951F029690932A0168
:102BE0008093290141935193CF0102C080E090E08E
:102BF000DF91CF910895CF93DF93009709F44EC0F2
:102C0000EC0122971B821A82A0912B01B0912C011A
:102C1000109711F140E050E001C0DC01AC17BD0796
:102C200000F1BB83AA83FE0121913191E20FF31FD2
:102C3000EA17FB0771F42E5F3F4F8D919C9111971E
:102C4000820F931F99838883FD01828193819B83E7
:102C50008A834115510559F4D0932C01C0932B015F
:102C60001DC0FD0182819381AD010097B1F6FA018B
:102C7000D383C28321913191E20FF31FEC17FD073B
:102C800069F42E5F3F4F88819981820F931FFA016B
:102C9000918380838A819B8193838283DF91CF910B
:102CA0000895DC0101C06D9341505040E0F7089554
:102CB00097FB092E07260AD077FD04D02ED006D028
:102CC00000201AF4709561957F4F0895F6F790955E
:102CD00081959F4F0895A1E21A2EAA1BBB1BFD01EF
:102CE0000DC0AA1FBB1FEE1FFF1FA217B307E407EB
:102CF000F50720F0A21BB30BE40BF50B661F771F43
:102D0000881F991F1A9469F7609570958095909522
:102D10009B01AC01BD01CF010895AA1BBB1B51E172
:102D200007C0AA1FBB1FA617B70710F0A61BB70B3B
:102D3000881F991F5A95A9F780959095BC01CD01E0
:102D400008952F923F924F925F926F927F928F924F
:102D50009F92AF92BF92CF92DF92EF92FF920F932A
:102D60001F93CF93DF93CDB7DEB7CA1BDB0B0FB634
:102D7000F894DEBF0FBECDBF09942A8839884888F1
:102D80005F846E847D848C849B84AA84B984C88487
:102D9000DF80EE80FD800C811B81AA81B981CE0F7E
:102DA000D11D0FB6F894DEBF0FBECDBFED01089563
:022DB000FFCF53
:102DB20028F91C58C94A0AF80848FFDFF700000042
:0C2DC200000000000020002D01000000B7
:00000001FF
