:100000000C9446000C94DE060C9465000C9465007C
:100010000C9465000C9465000C9465000C946500CC
:100020000C9465000C9465000C9465000C946500BC
:100030000C949F000C9465000C9465000C94650072
:100040000C9465000C9410010C9465000C946500F0
:100050000C9465000C9465000C9465000C9465008C
:100060000C9465000C9465000C9465000C9465007C
:100070000C9465000C9465000C94CA000C94650007
:100080000C9465000C9465000C94650011241FBE4F
:10009000CFEFD0E1DEBFCDBF12E0A0E0B1E0EAEAF1
:1000A000F2E200E00BBF02C007900D92AC31B10745
:1000B000D9F712E0ACE1B2E001C01D92A734B1075C
:1000C000E1F70E9467000C9454110C94000024EF97
:1000D00031E088EC90E00197F1F721503040C9F70A
:1000E0000E941C050E9472070E943B0582E390E07B
:1000F0000E94C9070E94D60783E291E090931D02F7
:1001000080931C0210921E0282E080931F021092C4
:10011000200210922102789480912D028823E1F32D
:10012000F89410922D026091370270E080E090E028
:100130000E94D40C40E00E94A0027894EDCF1F9260
:100140000F920FB60F9211242F933F934F935F930B
:100150006F937F938F939F93AF93BF93EF93FF938F
:10016000809120028F5F809320028CE192E00E94B8
:10017000A106FF91EF91BF91AF919F918F917F91D8
:100180006F915F914F913F912F910F900FBE0F9004
:100190001F9018951F920F920FB60F9211242F9354
:1001A0003F934F935F936F937F938F939F93AF93FF
:1001B000BF93EF93FF93E0912902F0912A020995F2
:1001C000FF91EF91BF91AF919F918F917F916F912F
:1001D0005F914F913F912F910F900FBE0F901F9005
:1001E0001895982F80919B0085FD04C0809128026E
:1001F0008823C1F390939C0080E090E008950E94D2
:10020000F100089580919B0087FD04C08091280231
:100210008823C1F380919C00992787FD90950895CC
:100220001F920F920FB60F9211242F933F934F936B
:100230005F936F937F938F939F93AF93BF93EF934E
:10024000FF93E0912B02F0912C020995FF91EF9121
:10025000BF91AF919F918F917F916F915F914F91DE
:100260003F912F910F900FBE0F901F90189597B34D
:10027000976097BBBB98880F880F880F8065660FC3
:10028000660F682B4295440F407E462B4DB9822F56
:100290008350823010F0273009F4689A253008F036
:1002A000699A213021F0233011F0253009F4709A39
:1002B00008959C01BB9A87B3887F87BB80E48DB982
:1002C0002115310529F030932C0220932B026F9ACF
:1002D0000895FB018FB9779904C080912802882383
:1002E000D1F3309711F08FB1808380E090E00895D2
:1002F000109271009C01442737FD4095542F60E413
:100300007FE180E090E00E94FB10DA01C901409794
:1003100062E070E00E94E8106093700084E08093D7
:1003200074000895982F990F6111916020E030E0DA
:100330002FC084EA809374008091740087FD04C00C
:10034000809128028823C1F380917100887F8830D2
:1003500011F08031B9F49093730084E880937400B5
:100360008091740087FD04C0809128028823C1F326
:1003700080917100887F662319F4883119F40DC0CB
:10038000803459F02F5F3F4F83E0283E380741F01B
:1003900080912802882369F203C080E090E00895EC
:1003A00081E090E0089560E00E94920190E008955D
:1003B0008093730084E8809374008091740087FDBB
:1003C00004C0809128028823C1F38091710020E04D
:1003D00030E0887F883211F021E030E0C9010895D3
:1003E00061E00E94920190E00895FC01662311F003
:1003F00084E801C084EC809374008091740087FDD0
:1004000004C0809128028823C1F3809128028823A8
:1004100019F081E090E0089580917300808380E07E
:1004200090E0089584E98093740008950F931F93DA
:10043000CF93DF938B019C01EA01F89494E0000FC5
:10044000111F221F331F9A95D1F760E072E18AE7EE
:1004500090E0A90198010E94FB10215030403F70AC
:10046000832F9927809398002093990086E08093AA
:100470009D0088E180939A00209749F080919A002E
:10048000806880939A00D0932A02C09329028091B9
:100490002F0290913002009731F00E943A0F109293
:1004A000300210922F0263E672E08FEF90E00E941C
:1004B000650F9093300280932F027894DF91CF9153
:1004C0001F910F9108950F931F93CF93DF938C018A
:1004D00080919B0087FD04C0809128028823C1F38E
:1004E00080919C008D3029F0C82FDD27C7FDD09565
:1004F00006C0B8018DE00E94FF00CAE0D0E0B8015C
:100500008C2F0E94FF00CE01DF91CF911F910F91A0
:1005100008950F931F93162F042FD89860E070E072
:100520000E94690160E070E0812F0E94690160E033
:1005300070E0802F0E946901D89A1F910F91089551
:100540009F92AF92BF92CF92DF92EF92FF920F9362
:100550001F93CF93DF935B016C01413009F4B5C069
:10056000413020F0423009F0AFC13DC120E030EC15
:1005700049E754E40E94810B18160CF4A5C120E051
:1005800030E046EC52ECC601B5010E94ED0B87FD50
:100590009BC120E030E040E050E0C601B5010E9480
:1005A000810B18161CF09BE0992E31C020E030E042
:1005B00048EC52E4C601B5010E94CC0A7B018C01D3
:1005C00020E030E040E050E00E94810B18163CF43F
:1005D00020E030E040E85FE3C801B7010CC020E054
:1005E00030E048EC52ECC601B5010E94CC0A20E094
:1005F00030E040E85FE30E94B70B87FF03C08AE06A
:10060000982E05C0C801B7010E940308962E20E06D
:1006100030E040E251E4C601B5010E94CC0A7B0102
:100620008C0120E030E040E050E00E94810B181681
:100630003CF420E030E040E85FE3C801B7010CC0C3
:1006400020E030E040E251ECC601B5010E94CC0A46
:1006500020E030E040E85FE30E94B70B87FF02C074
:100660001AE015C0C601B5010E94810CDC01CB0166
:1006700064E670E00E94E8108A3091051CF06AE0A0
:1006800070E002C066EF7FEF0E94E810162FC601EF
:10069000B5010E94810CDC01CB016AE070E00E9490
:1006A000E81097FF03C0909581959F4F90E0805090
:1006B0009F4FA12FB0E0A050BF4FE92DF0E0E050D8
:1006C000FF4FEC0148816C918CC020E030E048EC99
:1006D00052E40E94B70B87FFF7C020E030E040E112
:1006E00051ECC601B5010E94ED0B87FDEDC020E085
:1006F00030E040E050E0C601B5010E94810B1816C1
:100700000CF040C020E030E040E251E4C601B50109
:100710000E94CC0A7B018C0120E030E040E050E0F8
:100720000E94810B18163CF420E030E040E85FE3C3
:10073000C801B7010CC020E030E040E251ECC60136
:10074000B5010E94CC0A20E030E040E85FE30E945F
:10075000B70B88230CF4BBC0C801B7010E94030883
:10076000162F20E030E040E251E4C601B5010E94BE
:10077000CD090E94810CDC01CB016AE070E00E948F
:10078000E81011C020E030E040E251ECC601B501B4
:100790000E94CD090E94810CDC01CB016AE070E06F
:1007A0000E94E8101BE0C82FD0E0C050DF4FC60108
:1007B000B5010E94810CDC01CB016AE070E00E946F
:1007C000E81097FF03C0909581959F4FE82FF0E0C8
:1007D000E050FF4F6081677FE12FF0E0E050FF4F76
:1007E000488180816CC020E030E040E251E40E940A
:1007F000B70B87FF69C020E030E040E050E0C60161
:10080000B5010E94ED0B87FD5FC020E030E040E0C5
:1008100050E0C601B5010E94810B1816B4F420E027
:1008200030E040E251E4C601B5010E94CD090E94CA
:10083000810CDC01CB016AE070E00E94E810082F17
:1008400020E030E048EC52E415C020E030E040E227
:1008500051ECC601B5010E94CD090E94810CDC015A
:10086000CB016AE070E00E94E810082F20E030E041
:1008700048EC52ECC601B5010E94CD090E94810CE2
:10088000DC01CB016AE070E00E94E810E82EFF2452
:10089000E0E0F1E0EE0EFF1E10E00E0F1F1FC6019C
:1008A000B5010E940308DC01CB0190E080509F4F0E
:1008B000EC018881F7014081E8016881877F0E940F
:1008C000890280E090E005C081E090E002C01AE07B
:1008D00048CFDF91CF911F910F91FF90EF90DF9064
:1008E000CF90BF90AF909F9008954FEF6FEF8FEF35
:1008F0000E94890208951F9370E09B01220F331F0D
:10090000220F331F660F771F162F122B8864182BA8
:10091000812F0E94D3018130D9F081E00E94D8015B
:100920008130B1F080E60E94D801813089F00E94C8
:100930001202812F0E94D301813051F080E00E9489
:10094000D801813029F00E94120280E090E002C0BC
:1009500081E090E01F910895EF92FF920F931F9313
:10096000CF93DF93CDB7DEB722970FB6F894DEBFF3
:100970000FBECDBF7C0150E0CA01880F991F880FC0
:10098000991F440F551F142F182B6864162B812FA5
:100990000E94D301813009F440C080E00E94D80158
:1009A0008130D9F10E941202812F0E94F001813022
:1009B000A1F18E010F5F1F4F60E0C80101960E94F8
:1009C000F501813051F161E0C8010E94F5018130EB
:1009D00021F10E94120289819A819C0154E035958F
:1009E00027955A95E1F797FD306F3A8329836981FE
:1009F0007A81882777FD8095982F0E94230C20E02C
:100A000030E040E85DE30E94CD09F7016083718327
:100A10008283938380E090E002C081E090E02296A0
:100A20000FB6F894DEBF0FBECDBFDF91CF911F91FF
:100A30000F91FF90EF900895D09AD89AD198D298BC
:100A4000D398D49AD59AD69AD79AA098A198A298D2
:100A5000A39824E040E060E080E00E94370182E358
:100A600090E00E9478010E94750441E061E081E01D
:100A70000E947B04089510926A0081E089BF089566
:100A800019BE0895FF920F931F93182F062FF42E6F
:100A9000AD9860E070E083E00E94690160E070E082
:100AA000812F0E94690160E070E0802F0E9469013F
:100AB00060E070E08F2D0E946901AD9A1F910F9147
:100AC000FF900895AF92BF92CF92DF92EF92FF9284
:100AD0000F931F93CF93DF93CDB7DEB721970FB658
:100AE000F894DEBF0FBECDBF7C019C99FECFAD98C0
:100AF00060E070E080E90E9469018E010F5F1F4F86
:100B0000B80180E00E946901898190E023E0880FAC
:100B1000991F2A95E1F7F70191838083B80180E05E
:100B20000E946901298122952695277030E0F701FE
:100B300080819181822B932B91838083B80180E007
:100B40000E946901B80180E00E946901B80180E05B
:100B50000E94690189818F70F7018383CC24DD2491
:100B6000580109C0B50180E00E946901F701E10F59
:100B7000F11D898184831C2D0894C11CD11CF701AF
:100B80008381181778F340E061E08CE20E9442050F
:100B900021960FB6F894DEBF0FBECDBFDF91CF9187
:100BA0001F910F91FF90EF90DF90CF90BF90AF908B
:100BB00008950F931F93182F062FAD9860E070E0F3
:100BC00082E00E94690160E070E0812F0E9469016B
:100BD00060E070E0802F0E946901AD9A1F910F9133
:100BE00008950F931F938C01BC0133E076956795B0
:100BF0003A95E1F788E10E94D9050295000F007E41
:100C0000602F89E10E94D9051F910F9108950F93DC
:100C10001F938C01BC0143E0769567954A95E1F7F7
:100C200084E10E94D9050295000F007E602F85E1C6
:100C30000E94D9051F910F9108950F931F938C0166
:100C4000BC0153E0769567955A95E1F780E10E94E3
:100C5000D9050295000F007E602F81E10E94D90521
:100C60001F910F9108950F931F938C01BC01E3E036
:100C700076956795EA95E1F788E00E94D905029597
:100C8000000F007E602F89E00E94D9051F910F910F
:100C900008950F931F938C01BC01F3E0769567953F
:100CA000FA95E1F784E00E94D9050295000F007ED5
:100CB000602F85E00E94D9051F910F9108950F9331
:100CC0001F938C01BC01A3E076956795AA95E1F787
:100CD00080E00E94D9050295000F007E602F81E020
:100CE0000E94D9051F910F9108950F931F938C01B6
:100CF000BC01B3E076956795BA95E1F784E20E946E
:100D0000D9050295000F007E602F85E20E94D9056B
:100D10001F910F9108950F931F938C01BC0113E055
:100D2000769567951A95E1F780E20E94D9050295BC
:100D3000000F007E602F81E20E94D9051F910F9164
:100D400008950F931F93CF93DF93EC010B8168817C
:100D5000798183E0769567958A95E1F781E30E9432
:100D6000D90568816295660F607E82E30E94D9058D
:100D70008A81882331F00064602F85E30E94D905C1
:100D800011C0602F85E30E94D90510E009C0FE0163
:100D9000E10FF11D6481812F8A5C0E94D9051F5FDC
:100DA0001017A9F7AD9860E070E081E80E94690132
:100DB000AD9ADF91CF911F910F9108951F920F92DD
:100DC0000FB60F921124CF92DF92EF92FF920F9302
:100DD0001F932F933F934F935F936F937F938F93C3
:100DE0009F93AF93BF93EF93FF93CF93DF93CDB7D1
:100DF000DEB72197DEBFCDBFAD9860E070E080E93F
:100E00000E9469018E010F5F1F4FB80180E00E94B0
:100E10006901898190E023E0880F991F2A95E1F705
:100E20009093320280933102B80180E00E94690100
:100E3000898182958695877090E02091310230916A
:100E40003202822B932B9093320280933102B801AD
:100E500080E00E946901B80180E00E946901B80148
:100E600080E00E94690189818F7080933402EE24B2
:100E7000FF2468010AC0B60180E00E946901E12FE9
:100E8000F0E0EF5CFD4F898184831E2D0894E11C06
:100E9000F11C80913402181770F381E080932D02C9
:100EA00040E061E08CE20E9442052196F894DEBFAA
:100EB000CDBFDF91CF91FF91EF91BF91AF919F9106
:100EC0008F917F916F915F914F913F912F911F91E2
:100ED0000F91FF90EF90DF90CF900F900FBE0F908B
:100EE0001F901895A59AA49824E040E060E080E067
:100EF0000E943701AD9860E070E080EC0E946901CB
:100F0000AD9A60E08CE00E94D90560E08DE00E941F
:100F1000D90560E08AE20E94D90560E989E20E9471
:100F2000D90562E088E20E94D90560E080E60E946F
:100F3000D90560E080E70E94D90560E084E20E9464
:100F4000D90560E085E20E94D90560E086E20E9452
:100F5000D90560E087E20E94D9056FEF84E20E9424
:100F6000D9056FEF85E20E94D9056FEF86E20E94F6
:100F7000D9056FEF87E20E94D90561E08BE20E94FC
:100F8000D90568E08FE00E94D905089584E083BF09
:100F90000895BC011FBC8CE08EBD82E19AE70E94DF
:100FA000D410615070407BBD6ABD089587B78061E1
:100FB00087BF089586B7806186BF87B78F7E87BF5A
:100FC0000895BC0110928B008CE080938A0082E12E
:100FD0009AE70E94D410615070407093870060932C
:100FE0008600EDE7F0E0808180618083089596952A
:100FF000879580932E0212BE86B7816086BF87B721
:10100000816087BF0895EF92FF920F931F937B013A
:101010008C0120E030E040E05FE40E94B70B8823C1
:101020007CF020E030E040E05FE4C801B7010E94BE
:101030006F090E94810C605070408040904804C04D
:10104000C801B7010E94810C1F910F91FF90EF9092
:101050000895A0E0B0E0EFE2F8E00C941F112C013D
:101060005B01FA01DC019C91923008F432C1EB0182
:101070008881823008F42CC1943071F4843009F0F6
:1010800028C1F20191818981981709F422C11DE0DC
:10109000412E11E0512E1DC1843009F419C1823056
:1010A000A9F4923009F015C1CA01A20128E0DA01C1
:1010B0000D90AD01EC010992CE012150C1F7E5017F
:1010C0008981E20199818923818300C1923009F4E9
:1010D000FFC0E201CA80DB80EB018A819B81E201D3
:1010E0002C813D814E815F81EB01EC80FD800E8182
:1010F0001F81B601681B790BDB0177FF03C0709578
:1011000061957F4F603271050CF05DC01A161B06A9
:101110005CF566247724430181E090E0A0E0B0E034
:10112000062E04C0880F991FAA1FBB1F0A94D2F76E
:101130000197A109B1098E219F21A023B123009716
:10114000A105B10529F0B1E06B2E712C812C912CF9
:1011500004C016950795F794E7946A95D2F7E628A8
:10116000F728082919293BC0AB2BC9F1C60ED71E99
:1011700066247724430181E090E0A0E0B0E0062EF1
:1011800004C0880F991FAA1FBB1F0A94D2F70197AA
:10119000A109B10982239323A423B5230097A105B4
:1011A000B10529F0A1E06A2E712C812C912C04C08C
:1011B00056954795379527956A95D2F72629372969
:1011C000482959290CC08C159D0534F06C0120E08C
:1011D00030E040E050E003C0EE24FF248701E2014C
:1011E0009981E5018981981709F443C0992339F061
:1011F000E21AF30A040B150BA801970104C02E197B
:101200003F09400B510B57FD08C01182D382C282A7
:1012100024833583468357831DC081E08183D38235
:10122000C28288279927DC01821B930BA40BB50B84
:1012300084839583A683B7830DC0220F331F441F79
:10124000551F248335834683578382819381019779
:10125000938382832481358146815781DA01C901D4
:101260000197A109B1098F5F9F4FAF4FBF4328F38B
:101270000BC09183D382C2822E0D3F1D401F511F90
:10128000248335834683578383E08083248135819B
:10129000468157815523D4F4C901AA2797FDA0950B
:1012A000BA2F81709070A070B070569547953795A1
:1012B0002795822B932BA42BB52B84839583A68310
:1012C000B783828193810196938382832F0101C02A
:1012D0002501C201E0E1CDB7DEB70C943B11A0E2DD
:1012E000B0E0E5E7F9E00C94291169837A838B83F8
:1012F0009C832D833E834F83588709E0E02EF12C99
:10130000EC0EFD1EB701CE0101960E94740E8E01F7
:101310000F5E1F4FB801CE0105960E94740E8A8998
:1013200091E089278A8BAE01475E5F4FB801C70104
:101330000E9429080E94940DE6E0A0960C944511A5
:10134000A0E2B0E0E6EAF9E00C94291169837A831F
:101350008B839C832D833E834F83588789E0E82EBF
:10136000F12CEC0EFD1EB701CE0101960E94740E09
:101370008E010F5E1F4FB801CE0105960E94740EBC
:10138000AE01475E5F4FB801C7010E9429080E9465
:10139000940DE6E0A0960C944511A0E2B0E0E3EDD8
:1013A000F9E00C941F1169837A838B839C832D83CE
:1013B0003E834F83588799E0E92EF12CEC0EFD1EF9
:1013C000B701CE0101960E94740E8E010F5E1F4F71
:1013D000B801CE0105960E94740E9985923088F06E
:1013E00089898230C0F0943019F4823029F009C024
:1013F000843029F4923079F46DE071E0C6C0923007
:1014000041F420E09A858A89981321E02A87B70160
:10141000BCC0823041F420E09A858A89981321E08B
:101420002A8BB801B2C0CD84DE84EF84F8880D89A0
:101430001E892F89388D88249924540140E050E07A
:1014400060E070E0442455243201E0E0F0E0C601A1
:1014500081709070892BD9F0800E911EA21EB31E50
:10146000DB01CA01840D951DA61DB71D40E050E0AB
:1014700060E070E080169106A206B30620F441E019
:1014800050E060E070E0480F591F6A1F7B1F440C5A
:10149000551C661C771C37FF08C081E090E0A0E077
:1014A000B0E0482A592A6A2A7B2A3196E032F105AF
:1014B00049F0000F111F221F331FF694E794D794B1
:1014C000C794C5CF8B899C892B853C85820F931F40
:1014D00002969C8F8B8F1A8E9A858A89981711F0A5
:1014E00081E08A8F2B8D3C8D17C0CA01817090706E
:1014F000892B61F0B694A7949794879480E090E04C
:10150000A0E0B0E8882A992AAA2ABB2A769567958E
:10151000579547952F5F3F4F77FDE7CFC9010BC028
:10152000440F551F661F771FB7FC4160880C991C3C
:10153000AA1CBB1C01974030A0E05A07A0E06A0734
:10154000A0E47A0768F39C8F8B8FDB01CA018F7749
:101550009070A070B07080349105A105B10561F460
:1015600047FD0AC081149104A104B10429F0405C34
:101570005F4F6F4F7F4F40784D8F5E8F6F8F78A397
:1015800083E0898FBE01675E7F4FCB010E94940D7F
:10159000E0E1A0960C943B11A8E1B0E0E2EDFAE0A6
:1015A0000C94251169837A838B839C832D833E83DE
:1015B0004F8358878E01075F1F4FB801CE010196F8
:1015C0000E94740E81E1E82EF12CEC0EFD1EB70195
:1015D000CE0105960E94740E39853230F8F02989C3
:1015E000223010F4B70186C08A859A8989278A87B4
:1015F000343011F0323029F4321781F46DE071E0AB
:1016000079C0243039F41D861E861F86188A1C86F0
:101610001B8604C0223021F484E08987B8016AC0A7
:101620006B857C858B899C89681B790B7C876B8794
:101630002D853E854F8558898D899E89AF89B88DC6
:10164000281739074A075B0740F4220F331F441F4E
:10165000551F615070407C876B87A12CB12CC12C29
:1016600010E4D12EEE24FF24870160E070E02817FB
:1016700039074A075B0740F0EA28FB280C291D2997
:10168000281B390B4A0B5B0BD694C794B794A794CD
:10169000220F331F441F551F6F5F7F4F6F3171053E
:1016A00031F7D801C7018F779070A070B070803487
:1016B0009105A105B105B9F4E7FC15C02115310567
:1016C0004105510581F080E490E0A0E0B0E0E80E33
:1016D000F91E0A1F1B1F80E89FEFAFEFBFEFE82244
:1016E000F9220A231B23ED86FE860F87188BBE0185
:1016F000675F7F4FCB010E94940DEAE068960C94DF
:101700004111A8E1B0E0E7E8FBE00C9429116983FE
:101710007A838B839C832D833E834F83588789E014
:10172000E82EF12CEC0EFD1EB701CE0101960E94B1
:10173000740E8E010F5E1F4FB801CE0105960E94F8
:10174000740E8985823060F08989823048F0B80152
:10175000C7010E94E40E282F332727FD309502C0D1
:101760002FEF3FEFC901E6E068960C944511A8E120
:10177000B0E0EDEBFBE00C94291169837A838B8355
:101780009C832D833E834F83588789E0E82EF12C7C
:10179000EC0EFD1EB701CE0101960E94740E8E0163
:1017A0000F5E1F4FB801CE0105960E94740E898509
:1017B000823060F08989823048F0B801C7010E9408
:1017C000E40E282F332727FD309502C02FEF3FEF7F
:1017D000C901E6E068960C944511A8E1B0E0E3EF9A
:1017E000FBE00C94291169837A838B839C832D837E
:1017F0003E834F83588789E0E82EF12CEC0EFD1EC6
:10180000B701CE0101960E94740E8E010F5E1F4F2C
:10181000B801CE0105960E94740E8985823060F071
:101820008989823048F0B801C7010E94E40E282F50
:10183000332727FD309502C021E030E0C901E6E002
:1018400068960C944511A8E0B0E0E9E2FCE00C9445
:1018500026119B01AC0183E08983DA01C901882745
:10186000B7FD83959927AA27BB27B82E21153105E7
:101870004105510519F482E089833AC08823A9F013
:10188000203080E0380780E0480780E8580729F4D6
:1018900060E070E080E09FEC30C0EE24FF24870120
:1018A000E21AF30A040B150B02C079018A018EE1DA
:1018B000C82ED12CDC82CB82ED82FE820F8318876A
:1018C000C801B7010E94470D01971816190684F444
:1018D000082E04C0EE0CFF1C001F111F0A94D2F743
:1018E000ED82FE820F831887C81AD90ADC82CB8268
:1018F000BA82CE0101960E94940DE9E028960C94DC
:101900004211ACE0B0E0E7E8FCE00C942D116983F3
:101910007A838B839C83BE016B5F7F4FCE010196E0
:101920000E94740E8D818230A9F1823098F184304A
:1019300021F48E81882359F40FC02F81388537FD1B
:1019400029C06E812F31310564F0662329F020E033
:1019500030E040E050E822C02FEF3FEF4FEF5FE76D
:101960001DC08EE190E0821B930B29853A854B8543
:101970005C8504C056954795379527958A95D2F78B
:10198000662361F050954095309521953F4F4F4F1C
:101990005F4F04C020E030E040E050E0CA01B901F0
:1019A000E2E02C960C944911A8E0B0E0EAEDFCE0EE
:1019B0000C9427117B018C0161157105810591053E
:1019C00019F482E089835AC083E089838EE1C82EAE
:1019D000D12CDC82CB82ED82FE820F831887C80176
:1019E000B7010E94470DBC016150704077FF33C0C2
:1019F000EE27FF27E61BF70B20E030E040E050E049
:101A000081E090E0A0E0B0E00E2E04C0880F991FA6
:101A1000AA1FBB1F0A94D2F70197A109B1098E2111
:101A20009F21A023B1230097A105B10521F021E05A
:101A300030E040E050E004C016950795F794E79435
:101A4000EA95D2F72E293F29402B512B2D833E8337
:101A50004F8358870FC06115710581F0062E04C0B1
:101A6000EE0CFF1C001F111F0A94D2F7ED82FE82BC
:101A70000F831887C61AD70ADC82CB821A82CE015E
:101A800001960E94940DE8E028960C944311EF9281
:101A9000FF920F931F939B01AC01203080E0380729
:101AA00081E0480780E0580780F42F3F3105410569
:101AB000510509F020F4EE24FF24870119C068E0E5
:101AC000E62EF12C012D112D13C0203080E03807B7
:101AD00080E0480781E0580730F490E1E92EF12CCE
:101AE000012D112D05C088E1E82EF12C012D112DBD
:101AF00080E290E0A0E0B0E08E199F09A00BB10B4E
:101B000004C05695479537952795EA94D2F7F90181
:101B1000EB5EFE4F2081821B9109A109B1091F9143
:101B20000F91FF90EF9008959F92AF92BF92CF9246
:101B3000DF92EF92FF920F931F93EE24FF24870111
:101B4000FC012481358146815781918080818230DA
:101B500010F44061A2C0843009F49BC0823029F4A3
:101B600020E030E040E050E005C02115310541059E
:101B7000510519F4E0E0F0E092C0828193816FEFAB
:101B8000823896070CF05AC062E87FEF681B790B29
:101B90006A3171052CF020E030E040E050E02AC0CE
:101BA000AA24BB24650181E090E0A0E0B0E0062E0D
:101BB00004C0880F991FAA1FBB1F0A94D2F7019770
:101BC000A109B10982239323A423B5230097A1057A
:101BD000B10529F071E0A72EB12CC12CD12C04C085
:101BE00056954795379527956A95D2F72A293B2927
:101BF0004C295D29DA01C9018F779070A070B0700F
:101C000080349105A105B10539F427FF09C0205C96
:101C10003F4F4F4F5F4F04C0215C3F4F4F4F5F4FCF
:101C200080E090E0203060E0360760E0460760E446
:101C3000560710F081E090E0FC0123C08038910548
:101C400044F5FC01E158FF4FDA01C9018F7790702C
:101C5000A070B07080349105A105B10539F427FF5B
:101C600009C0205C3F4F4F4F5F4F04C0215C3F4F86
:101C70004F4F5F4F57FF05C05695479537952795AE
:101C8000319687E056954795379527958A95D1F7F0
:101C900006C020E030E040E050E0EFEFF0E0E22E60
:101CA000F32E942F9F77802F8078892B9E2F9795E6
:101CB000992797958F77082F092B9E2F9695812F1F
:101CC0008078892B9794992497948F77182F1929C6
:101CD000C801B7011F910F91FF90EF90DF90CF9057
:101CE000BF90AF909F900895CF93DF93FC01DB01ED
:101CF000208131819281492F4F7750E0991F992798
:101D0000991F8381E82FEE0FE92B6E2F70E0881F5B
:101D10008827881FED018983EE2371F52115310590
:101D20004105510511F482E02FC06E577040FD014E
:101D30007383628367E0220F331F441F551F6A9528
:101D4000D1F783E08C930AC0220F331F441F551F25
:101D5000ED018A819B8101979B838A832030E0E09B
:101D60003E07E0E04E07E0E45E0770F3ED012C83F0
:101D70003D834E835F8325C0EF3F79F42115310504
:101D80004105510519F484E08C931BC044FF03C046
:101D900081E08C9311C01C920FC06F577040ED0111
:101DA0007B836A8383E08C9387E0220F331F441F79
:101DB000551F8A95D1F75064FD01248335834683EE
:101DC0005783DF91CF910895CF93DF93DC01FB011F
:101DD0009C91923008F446C08081823008F442C061
:101DE000943049F4ED016981843079F5818190E086
:101DF000861B91093CC0843021F0923031F482304E
:101E0000A1F18181882371F52AC0ED0169818230B9
:101E1000E1F081816817C9F4ED012A813B8182815B
:101E20009381821793078CF028173907B4F0ED01DE
:101E30008C819D81AE81BF8124813581468157810E
:101E4000281739074A075B0718F4662341F40AC0CC
:101E500082179307A407B50740F4662319F48FEFA0
:101E60009FEF05C081E090E002C080E090E0DF914C
:101E7000CF910895FC01838187FF24C080913D02AA
:101E800090913E028E179F0721F410923E0210920D
:101E90003D0280913F02909140028E179F0721F4EE
:101EA0001092400210923F028091410290914202B2
:101EB0008E179F0721F41092420210924102CF0127
:101EC0000E94771080E090E00895EF92FF920F93C8
:101ED0001F93CF93DF938C017B01892B11F4672B28
:101EE000D1F16EE070E081E090E00E94B30FFC0160
:101EF000009789F1DC0180E88383E114F10471F03B
:101F0000F386E28681E8838380913D0290913E02D0
:101F1000892B21F4F0933E02E0933D020115110557
:101F2000E1F01187008783818260838380913F0283
:101F300090914002892B89F4F0934002E0933F0294
:101F40008091410290914202892B39F4F093420230
:101F5000E093410202C0A0E0B0E0CD01E6E0CDB7E1
:101F6000DEB70C9445110F931F93CF93DF93689FB7
:101F70008001699F100D789F100D1124C8010E94E7
:101F8000CF0FEC01009729F0A80160E070E00E94FB
:101F9000CD10CE01DF91CF911F910F910895CF9376
:101FA000DF93AC01029710F442E050E0A0914502AB
:101FB000B0914602FD01C0E0D0E020E030E020C05A
:101FC000808191818417950769F48281938120979C
:101FD00019F09B838A8304C0909346028093450244
:101FE0009F0132C04817590738F42115310519F0FF
:101FF0008217930708F49C01EF010280F381E02D22
:102000003097F1F62115310599F1C901841B950B23
:10201000049708F4A901E0E0F0E028C08D919C91BC
:10202000119782179307F9F44817590781F4ED01C6
:102030008A819B81309719F09383828304C09093A7
:102040004602809345029D012E5F3F4F4CC0841B8A
:10205000950BFD01E80FF91F4193519302978D9362
:102060009C939F0140C0FD01A281B3811097B1F6FE
:102070008091430290914402892B41F48091170290
:102080009091180290934402809343022091190288
:1020900030911A022115310549F48DB7282F30E00F
:1020A0008091150290911602281B390BA0914302D2
:1020B000B09144022A1B3B0B2417350790F0CA014C
:1020C00002962817390768F09D012E5F3F4FC9011E
:1020D000840F951F90934402809343024D935C9329
:1020E00002C020E030E0C901DF91CF910895CF9385
:1020F000DF93009709F44EC0EC0122971B821A82ED
:10210000A0914502B0914602109711F140E050E0D5
:1021100001C0DC01AC17BD0700F1BB83AA83FE013F
:1021200021913191E20FF31FEA17FB0771F48D91B2
:102130009C911197280F391F2E5F3F4F39832883B9
:10214000FD01828193819B838A834115510559F456
:10215000D0934602C09345021DC0FD018281938148
:10216000AD010097B1F6FA01D383C2832191319179
:10217000E20FF31FEC17FD0769F488819981280F9E
:10218000391F2E5F3F4FFA01318320838A819B8163
:1021900093838283DF91CF910895DC0101C06D9319
:1021A00041505040E0F70895AA1BBB1B51E107C006
:1021B000AA1FBB1FA617B70710F0A61BB70B881FD7
:1021C000991F5A95A9F780959095BC01CD01089566
:1021D00097FB092E07260AD077FD04D0E5DF06D04D
:1021E00000201AF4709561957F4F0895F6F7909549
:1021F00081959F4F0895A1E21A2EAA1BBB1BFD01DA
:102200000DC0AA1FBB1FEE1FFF1FA217B307E407D5
:10221000F50720F0A21BB30BE40BF50B661F771F2D
:10222000881F991F1A9469F760957095809590950D
:102230009B01AC01BD01CF0108952F923F924F92B7
:102240005F926F927F928F929F92AF92BF92CF9246
:10225000DF92EF92FF920F931F93CF93DF93CDB74F
:10226000DEB7CA1BDB0B0FB6F894DEBF0FBECDBFC7
:1022700009942A88398848885F846E847D848C8498
:102280009B84AA84B984C884DF80EE80FD800C81A1
:102290001B81AA81B981CE0FD11D0FB6F894DEBF84
:0A22A0000FBECDBFED010895FFCF82
:1022AA0028F91C58C94A0AF80848FFDFF700000055
:1022BA0000000000000001020203030303040404F7
:1022CA0004040404040505050505050505050505B9
:1022DA000505050505060606060606060606060699
:1022EA000606060606060606060606060606060684
:1022FA000606060606070707070707070707070769
:10230A000707070707070707070707070707070753
:10231A000707070707070707070707070707070743
:10232A000707070707070707070707070707070733
:10233A000707070707080808080808080808080818
:10234A000808080808080808080808080808080803
:10235A0008080808080808080808080808080808F3
:10236A0008080808080808080808080808080808E3
:10237A0008080808080808080808080808080808D3
:10238A0008080808080808080808080808080808C3
:10239A0008080808080808080808080808080808B3
:1023AA0008080808080808080808080808080808A3
:0C23BA0008080808082000470200000086
:00000001FF
