:100000000C9446000C9466000C9466000C946600F8
:100010000C9466000C9466000C94D3060C94660055
:100020000C9466000C9466000C9466000C946600B8
:100030000C94AD000C9466000C9466000C94660061
:100040000C9466000C9452010C9466000C946600AB
:100050000C9466000C9466000C9466000C94660088
:100060000C9466000C9466000C9466000C94660078
:100070000C9466000C9466000C94D7000C946600F7
:100080000C9466000C9466000C94660011241FBE4C
:10009000CFEFD0E1DEBFCDBF12E0A0E0B1E0E6E7F8
:1000A000F1E200E00BBF02C007900D92AC31B10746
:1000B000D9F71BBE12E0ACE1B2E001C01D92A7343B
:1000C000B107E1F70E9468000C94B9100C9400008D
:1000D00084EF91E028EC30E0F9013197F1F70197D6
:1000E000D9F70E941A050E9461070E94600682E308
:1000F00090E00E94B0070E94BD0783E291E09093D8
:100100001D0280931C0210921E0282E080931F0247
:100110001092200210922102789480912D0288235F
:10012000E1F3F89410922D02809131029091320205
:100130008050914029F480913502809320020BC0B9
:100140008091310290913202805E914021F4809141
:100150003502809321027894E0CF1F920F920FB660
:100160000F920BB60F9211242F933F934F935F93EF
:100170006F937F938F939F93AF93BF93EF93FF936F
:100180008CE192E00E940306FF91EF91BF91AF9145
:100190009F918F917F916F915F914F913F912F919F
:1001A0000F900BBE0F900FBE0F901F9018951F92CF
:1001B0000F920FB60F920BB60F9211242F933F930D
:1001C0004F935F936F937F938F939F93AF93BF935F
:1001D000EF93FF93E0912902F0912A020995FF9194
:1001E000EF91BF91AF919F918F917F916F915F91AF
:1001F0004F913F912F910F900BBE0F900FBE0F901C
:100200001F901895982F80919B0085FD04C08091C8
:1002100028028823C1F390939C0080E090E0089529
:10022000982F80919B0085FD04C08091280288232F
:10023000C1F390939C0080E090E0089580919B0032
:1002400087FD04C0809128028823C1F380919C001F
:10025000089580919B0087FD04C080912802882327
:10026000C1F390919C00292F332727FD30952D3025
:10027000310561F480919B0085FD04C080912802C6
:100280008823C1F390939C002AE030E080919B008A
:1002900085FD04C0809128028823C1F320939C002F
:1002A000C90108951F920F920FB60F920BB60F92CD
:1002B00011242F933F934F935F936F937F938F936B
:1002C0009F93AF93BF93EF93FF93E0912B02F09135
:1002D0002C020995FF91EF91BF91AF919F918F9162
:1002E0007F916F915F914F913F912F910F900BBE36
:1002F0000F900FBE0F901F90189597B3976097BB04
:10030000BB98880F880F880F8065660F660F682B73
:100310004295440F407E462B4DB9822F8350823048
:1003200010F0273009F4689A253008F0699A2130D6
:1003300021F0233011F0253009F4709A08959C01C2
:10034000BB9A87B3887F87BB80E48DB921153105BF
:1003500029F030932C0220932B026F9A0895FB0111
:100360008FB9779904C0809128028823D1F3309700
:1003700011F08FB1808380E00895109271009C018C
:10038000442737FD4095542F60E47FE180E090E002
:100390000E946010DA01C901409762E070E00E949B
:1003A0004D106093700084E0809374000895982F3E
:1003B000990F6111916020E030E054EA44E82DC0CB
:1003C000509374008091740087FD04C080912802CE
:1003D0008823C1F380917100887F883011F08031CB
:1003E000B1F490937300409374008091740087FD82
:1003F00004C0809128028823C1F380917100887F16
:10040000662319F4883119F40DC0803459F02F5F38
:100410003F4F83E0283E380739F080912802882337
:1004200079F202C080E0089581E0089560E00E94C2
:10043000D70108958093730084E8809374008091BD
:10044000740087FD04C0809128028823C1F3809145
:10045000710090E0887F883209F091E0892F08953B
:1004600061E00E94D7010895FC01662311F084E841
:1004700001C084EC809374008091740087FD04C0F7
:10048000809128028823C1F380912802882311F0EB
:1004900081E0089580917300808380E0089584E96D
:1004A0008093740008950F931F93CF93DF938B0174
:1004B0009C01EA01F89484E0000F111F221F331FF2
:1004C0008A95D1F760E072E18AE790E0A90198018E
:1004D0000E946010215030403F703093980020936C
:1004E000990086E080939D0088E180939A00209790
:1004F00049F080919A00806880939A00D0932A02F4
:10050000C093290280912F0290913002009731F020
:100510000E949D0E1092300210922F0280E191E015
:1005200069E271E00E94C80E9093300280932F021E
:100530007894DF91CF911F910F9108950F931F939E
:10054000162F042FD89860E070E00E94AF01812F31
:1005500060E070E00E94AF01802F60E070E00E94D8
:10056000AF01D89A1F910F9108959F92AF92BF92B9
:10057000CF92DF92EF92FF920F931F93CF93DF936F
:100580007B018C01413009F4AFC0413020F0423092
:1005900009F0A6C139C120E030EC49E754E40E94DB
:1005A000660B18160CF49CC1C801B70120E030E0BE
:1005B00046EC52EC0E94C60B87FD92C1C801B70100
:1005C00020E030E040E050E00E94660B18161CF07E
:1005D0003BE0932E2DC0C801B70120E030E048EC8D
:1005E00052E40E94BA0A5B016C0120E030E040E076
:1005F00050E00E94660B18161CF4C601B50108C035
:10060000C801B70120E030E048EC52EC0E94BA0A81
:1006100020E030E040E85FE30E94960B87FF03C0D4
:100620002AE0922E05C0C601B5010E94EA07962E67
:10063000C801B70120E030E040E251E40E94BA0A6C
:100640005B016C0120E030E040E050E00E94660B6E
:1006500018161CF4C601B50108C0C801B70120E096
:1006600030E040E251EC0E94BA0A20E030E040E87D
:100670005FE30E94960B87FF02C06AE014C0C801C6
:10068000B7010E94540CDC01CB0164E670E00E94CB
:100690004D108A3091051CF06AE070E002C066EFF0
:1006A0007FEF0E944D10C92CDD2480E091E0C80E40
:1006B000D91EC62FD0E0C80FD91FC801B7010E94AC
:1006C000540CDC01CB016AE070E00E944D1097FFF2
:1006D00003C0909581959F4FE82FF0E0E050FF4FC9
:1006E000D6018C9168818BC020E030E048EC52E468
:1006F0000E94960B87FFF4C0C801B70120E030E0EC
:1007000040E151EC0E94C60B87FDEAC0C801B70169
:1007100020E030E040E050E00E94660B181664F5DF
:10072000C801B70120E030E040E251E40E94BA0A7B
:100730005B016C0120E030E040E050E00E94660B7D
:1007400018161CF4C601B50108C0C801B70120E0A5
:1007500030E040E251EC0E94BA0A20E030E040E88C
:100760005FE30E94960B88230CF4C7C0C601B50155
:100770000E94EA07D62E14C0C801B70120E030E07D
:1007800040E251EC0E94C0090E94540CDC01CB01F4
:100790006AE070E00E944D10C82E9BE0D92E11C077
:1007A000C801B70120E030E040E251E40E94C009F6
:1007B0000E94540CDC01CB016AE070E00E944D10F5
:1007C000C82ECD2DD0E0C050DF4FC801B7010E9428
:1007D000540CDC01CB016AE070E00E944D1097FFE1
:1007E00003C0909581959F4FE82FF0E0E050FF4FB8
:1007F0006081677FEC2DF0E0E050FF4F8881408101
:100800000E949E0280E06DC020E030E040E251E4B2
:100810000E94960B87FF64C0C801B70120E030E05A
:1008200040E050E00E94C60B87FD5AC0C801B701E6
:1008300020E030E040E050E00E94660B1816C4F45F
:10084000C801B70120E030E040E251E40E94C00955
:100850000E94540CDC01CB016AE070E00E944D1054
:10086000C82EC801B70120E030E048EC52E417C0C0
:10087000C801B70120E030E040E251EC0E94C0091D
:100880000E94540CDC01CB016AE070E00E944D1024
:10089000C82EC801B70120E030E048EC52EC0E94BD
:1008A000C0090E94540CDC01CB016AE070E00E9498
:1008B0004D10D82EC801B7010E94EA07DC01CB0118
:1008C00090E080509F4FFC018081AC2DB0E0A050A3
:1008D000BF4FED2DF0E0E050FF4F877F6C918FCF41
:1008E00081E0DF91CF911F910F91FF90EF90DF900A
:1008F000CF90BF90AF909F9008958AE0D82E50CFB0
:100900008FEF6FEF4FEF0E949E0208951F9370E0EC
:100910009B01220F331F220F331F660F771F162FE5
:10092000122B8864182B812F0E9416028130D1F07F
:1009300081E00E941A028130A9F080E60E941A022A
:10094000813081F00E944F02812F0E941602813077
:1009500049F080E00E941A02813021F00E944F028B
:1009600080E001C081E01F910895EF92FF920F9304
:100970001F93DF93CF9300D0CDB7DEB77C0150E05B
:10098000CA01880F991F880F991F440F551F142FF4
:10099000182B6864162B812F0E941602813009F4EF
:1009A0003FC080E00E941A028130D1F10E944F02C4
:1009B000812F0E943002813099F18E010F5F1F4F0D
:1009C000C801019660E00E943402813049F1C801FB
:1009D00061E00E943402813019F10E944F02898146
:1009E0009A819C0164E0359527956A95E1F797FD1A
:1009F000306F3A83298369817A81882777FD8095D2
:100A0000982F0E94F60B20E030E040E85DE30E9462
:100A1000C009F701608371838283938380E001C002
:100A200081E00F900F90CF91DF911F910F91FF9078
:100A3000EF900895D09AD89AD198D298D398D49A12
:100A4000D59AD69AD79AA098A198A298A39880E010
:100A500060E040E024E00E947D0182E390E00E949B
:100A6000BD010E94800481E061E041E00E948604B3
:100A7000089519BE08950F931F93182F062FAD9850
:100A800082E060E070E00E94AF01812F60E070E0E2
:100A90000E94AF01802F60E070E00E94AF01AD9A2C
:100AA0001F910F9108950F931F938C01BC0183E058
:100AB000769567958A95E1F788E10E943B05029556
:100AC000000F007E89E1602F0E943B051F910F916E
:100AD00008950F931F938C01BC0193E07695679561
:100AE0009A95E1F784E10E943B050295000F007E94
:100AF00085E1602F0E943B051F910F9108950F9390
:100B00001F938C01BC0123E0769567952A95E1F748
:100B100080E10E943B050295000F007E81E1602F7D
:100B20000E943B051F910F9108950F931F938C0115
:100B3000BC0133E0769567953A95E1F788E00E942D
:100B40003B050295000F007E89E0602F0E943B0567
:100B50001F910F9108950F931F938C01BC0143E0E7
:100B6000769567954A95E1F784E00E943B050295EA
:100B7000000F007E85E0602F0E943B051F910F91C2
:100B800008950F931F938C01BC0153E076956795F0
:100B90005A95E1F780E00E943B050295000F007E28
:100BA00081E0602F0E943B051F910F9108950F93E4
:100BB0001F938C01BC01E3E076956795EA95E1F718
:100BC00084E20E943B050295000F007E85E2602FC3
:100BD0000E943B051F910F9108950F931F938C0165
:100BE000BC01F3E076956795FA95E1F780E20E9403
:100BF0003B050295000F007E81E2602F0E943B05BD
:100C00001F910F9108950F931F93CF93DF93EC01E2
:100C10000B8168817981A3E076956795AA95E1F7C4
:100C200081E30E943B0568816295660F607E82E3E6
:100C30000E943B058A81882331F0006485E3602FA0
:100C40000E943B0511C085E3602F0E943B0510E028
:100C500009C0FE01E10FF11D812F8A5C64810E94B1
:100C60003B051F5F1017A8F3AD9881E860E070E0C6
:100C70000E94AF01AD9ADF91CF911F910F9108951E
:100C8000FF920F931F93182F062FF42EAD9883E039
:100C900060E070E00E94AF01812F60E070E00E9490
:100CA000AF01802F60E070E00E94AF018F2D60E007
:100CB00070E00E94AF01AD9A1F910F91FF900895CF
:100CC00090E298BF88E08ABF99BF8CE261E040E083
:100CD0000E9440060895DF92EF92FF920F931F93B8
:100CE000DF93CF9300D0CDB7DEB77C019C99FECFC8
:100CF000AD9880E960E070E00E94AF0180E08E0175
:100D00000F5F1F4FB8010E94AF01898190E0B3E0EF
:100D1000880F991FBA95E1F7F7019183808380E0EE
:100D2000B8010E94AF01298122952695277030E0F5
:100D3000F70180819181822B932B9183808380E0C6
:100D4000B8010E94AF0180E0B8010E94AF0180E0CD
:100D5000B8010E94AF0189818F70F701838390E011
:100D6000D02E012F0DC080E06D2D702F9A830E9430
:100D7000AF019A81F701E90FF11D898184839F5F9B
:100D8000F7018381981778F38CE261E040E00E94DC
:100D900040060F900F90CF91DF911F910F91FF9020
:100DA000EF90DF9008951F920F920FB60F920BB63F
:100DB0000F921124FF920F931F932F933F934F9302
:100DC0005F936F937F938F939F93AF93BF93EF93B3
:100DD000FF93DF93CF9300D0CDB7DEB7AD9880E916
:100DE00060E070E00E94AF0180E08E010F5F1F4F56
:100DF000B8010E94AF01898190E023E0880F991F1C
:100E00002A95E1F7909332028093310280E0B80195
:100E10000E94AF0120913102309132028981829586
:100E20008695877090E0822B932B9093320280936B
:100E3000310280E0B8010E94AF0180E0B8010E9459
:100E4000AF0180E0B8010E94AF0189818F7080936B
:100E5000340290E0F02E012F0EC080E06F2D702F35
:100E60009A830E94AF019A81E92FF0E08981EF5CBB
:100E7000FD4F84839F5F80913402981770F381E067
:100E800080932D028CE261E040E00E9440060F90CA
:100E90000F90CF91DF91FF91EF91BF91AF919F9113
:100EA0008F917F916F915F914F913F912F911F9102
:100EB0000F91FF900F900BBE0F900FBE0F901F90E1
:100EC0001895A59AA49880E060E040E024E00E9494
:100ED0007D01AD9880EC60E070E00E94AF01AD9ABA
:100EE0008CE060E00E943B058DE060E00E943B05E5
:100EF0008AE260E00E943B0589E260E90E943B05CE
:100F000088E262E00E943B0580E660E00E943B05CB
:100F100080E760E00E943B0584E260E00E943B05C0
:100F200085E260E00E943B0586E260E00E943B05AE
:100F300087E260E00E943B058FEF97E00E94ED059D
:100F400080EE91E00E94AB058BE261E00E943B05E0
:100F50008FE068E00E943B05089584E083BF089518
:100F6000BC011FBC8CE08EBD82E19AE70E94391063
:100F7000615070407BBD6ABD089587B7806187BFAF
:100F8000089586B7806186BF87B78F7E87BF089533
:100F9000BC0110928B008CE080938A0082E19AE77A
:100FA0000E943910615070407093870060938600F2
:100FB000EDE7F0E0808180618083089596958795C4
:100FC00080932E0212BE86B7816086BF87B781608C
:100FD00087BF0895EF92FF920F931F937B018C01BF
:100FE00020E030E040E05FE40E94960B88238CF024
:100FF000C801B70120E030E040E05FE40E946209F0
:101000000E94540C9B01AC0120503040404050489D
:1010100006C0C801B7010E94540C9B01AC01B90184
:10102000CA011F910F91FF90EF900895A0E0B0E0EA
:10103000ECE1F8E00C948210DC012B01FA019C91A8
:10104000923008F439C1EB018881823008F433C151
:10105000943069F4843009F02FC111969C91119756
:101060008981981709F428C1ADE0B1E025C1843029
:1010700009F421C18230A9F4923009F01DC19A010E
:10108000AD0188E0EA010990AE01E90109929E01F3
:101090008150C1F7E201898111969C918923818356
:1010A00008C1923009F407C112962D903C90139715
:1010B000EB018A819B811496AD90BD90CD90DC9020
:1010C0001797EC80FD800E811F819101281B390B41
:1010D000B90137FF04C066277727621B730B6032A4
:1010E00071050CF061C0121613066CF5370148014A
:1010F000062E04C096948794779467940A94D2F746
:1011000021E030E040E050E004C0220F331F441FD4
:10111000551F6A95D2F721503040404050402E2153
:101120003F2140235123211531054105510521F06F
:1011300021E030E040E050E079018A01E628F7281C
:10114000082919293CC0232BD1F1260E371E350161
:101150004601062E04C096948794779467940A9467
:10116000D2F721E030E040E050E004C0220F331F0E
:10117000441F551F6A95D2F72150304040405040DF
:101180002A213B214C215D212115310541055105C5
:1011900021F021E030E040E050E059016A01A6284A
:1011A000B728C828D9280BC0821593052CF01C013C
:1011B000AA24BB24650103C0EE24FF2487011196F5
:1011C0009C91D20111968C91981709F445C09923EE
:1011D00039F0A80197012A193B094C095D0906C09D
:1011E000A60195012E193F09400B510B57FD08C070
:1011F00011823382228224833583468357831DC024
:1012000081E081833382228288279927DC01821B37
:10121000930BA40BB50B84839583A683B7830DC072
:10122000220F331F441F551F248335834683578362
:1012300082819381019793838283248135814681C2
:101240005781DA01C9010197A109B1098F5F9F4F49
:10125000AF4FBF4328F30BC0918333822282EA0C45
:10126000FB1C0C1D1D1DE482F5820683178383E0A1
:101270008083248135814681578157FF1AC0C90177
:10128000AA2797FDA095BA2F81709070A070B070BA
:101290005695479537952795822B932BA42BB52BE5
:1012A00084839583A683B7838281938101969383F8
:1012B0008283DF0101C0D201CD01CDB7DEB7E2E10B
:1012C0000C949E10A0E2B0E0E8E6F9E00C948E10D9
:1012D00069837A838B839C832D833E834F835887D6
:1012E000E9E0EE2EF12CEC0EFD1ECE010196B701C9
:1012F0000E94CC0D8E010F5E1F4FCE010596B801E6
:101300000E94CC0D8A8991E089278A8BC701B80198
:10131000AE01475E5F4F0E9416080E94F70CA09630
:10132000E6E00C94AA10A0E2B0E0E9E9F9E00C9440
:101330008E1069837A838B839C832D833E834F83B6
:101340005887F9E0EF2EF12CEC0EFD1ECE01019630
:10135000B7010E94CC0D8E010F5E1F4FCE01059686
:10136000B8010E94CC0DC701B801AE01475E5F4FC6
:101370000E9416080E94F70CA096E6E00C94AA10B2
:10138000A0E2B0E0E6ECF9E00C94821069837A8385
:101390008B839C832D833E834F835887CE01019698
:1013A000BE01675F7F4F0E94CC0DCE010596BE0146
:1013B0006F5E7F4F0E94CC0D9985923088F08989AD
:1013C0008230C8F0943019F4823051F404C0843073
:1013D00029F4923081F48DE091E0C6C0923049F456
:1013E00020E09A858A89981321E02A87CE01099600
:1013F000BBC0823049F420E09A858A89981321E0A5
:101400002A8BCE014196B0C02D843E844F845888EB
:101410006D887E888F88988CEE24FF248701AA240B
:10142000BB24650140E050E060E070E0E0E0F0E007
:10143000C10181709070892BE9F0E60CF71C081D42
:10144000191D9A01AB012A0D3B1D4C1D5D1D80E04D
:1014500090E0A0E0B0E0E614F7040805190520F4D8
:1014600081E090E0A0E0B0E0BA01A901480F591F67
:101470006A1F7B1FAA0CBB1CCC1CDD1C97FE08C07E
:1014800081E090E0A0E0B0E0A82AB92ACA2ADB2ACD
:101490003196E032F10549F0660C771C881C991CE6
:1014A0005694479437942794C3CFFA85EA892B89B9
:1014B0003C898B859C85280F391F2E5F3F4F17C0B5
:1014C000CA0181709070892B61F016950795F79489
:1014D000E79480E090E0A0E0B0E8E82AF92A0A2B3F
:1014E0001B2B76956795579547952F5F3F4F77FD57
:1014F000E7CF0CC0440F551F661F771F17FD4160D3
:10150000EE0CFF1C001F111F21503040403090E0B6
:10151000590790E0690790E4790760F32B8F3C8FBF
:10152000DB01CA018F779070A070B0708034910594
:10153000A105B10561F447FD0AC0E114F1040105FC
:10154000110529F0405C5F4F6F4F7F4F40781A8E36
:10155000FE1711F081E08A8F4D8F5E8F6F8F78A319
:1015600083E0898FCE0149960E94F70CA096E2E1B4
:101570000C949E10A8E1B0E0E0ECFAE00C948A1024
:1015800069837A838B839C832D833E834F83588723
:10159000B9E0EB2EF12CEC0EFD1ECE010196B70149
:1015A0000E94CC0D8E010F5E1F4FCE010596B80133
:1015B0000E94CC0D2985223008F47EC03989323052
:1015C00010F4B8017CC08A859A8989278A872430DB
:1015D00011F0223031F4231709F06EC06DE071E094
:1015E0006EC0343039F41D861E861F86188A1C860C
:1015F0001B8604C0323021F484E08987B7015FC0C4
:101600002B853C858B899C89281B390B3C872B8734
:10161000ED84FE840F851889AD88BE88CF88D88C6C
:10162000EA14FB040C051D0540F4EE0CFF1C001F22
:10163000111F215030403C872B8720E030E040E0F4
:1016400050E080E090E0A0E0B0E460E070E0EA14F8
:10165000FB040C051D0540F0282B392B4A2B5B2B76
:10166000EA18FB080C091D09B695A795979587956B
:10167000EE0CFF1C001F111F6F5F7F4F6F31710554
:1016800031F7DA01C9018F779070A070B0708034A3
:101690009105A105B10561F427FD0AC0E114F1042B
:1016A0000105110529F0205C3F4F4F4F5F4F207817
:1016B0002D873E874F87588BBE01675F7F4FCB01D9
:1016C0000E94F70C6896EAE00C94A610A8E1B0E03E
:1016D000ECE6FBE00C948E1069837A838B839C8309
:1016E0002D833E834F83588789E0E82EF12CEC0E42
:1016F000FD1ECE010196B7010E94CC0D8E010F5E3A
:101700001F4FCE010596B8010E94CC0D898582300D
:1017100040F08989823028F0C701B8010E94440E48
:1017200001C08FEF6896E6E00C94AA10A8E1B0E043
:10173000ECE9FBE00C948E1069837A838B839C83A5
:101740002D833E834F83588789E0E82EF12CEC0EE1
:10175000FD1ECE010196B7010E94CC0D8E010F5ED9
:101760001F4FCE010596B8010E94CC0D89858230AD
:1017700040F08989823028F0C701B8010E94440EE8
:1017800001C08FEF6896E6E00C94AA10A8E1B0E0E3
:10179000ECECFBE00C948E1069837A838B839C8342
:1017A0002D833E834F83588789E0E82EF12CEC0E81
:1017B000FD1ECE010196B7010E94CC0D8E010F5E79
:1017C0001F4FCE010596B8010E94CC0D898582304D
:1017D00040F08989823028F0C701B8010E94440E88
:1017E00001C081E06896E6E00C94AA10A8E0B0E0A1
:1017F000ECEFFBE00C948B109B01AC0183E0898340
:10180000DA01C9018827B7FD83959927AA27BB2745
:10181000B82E211531054105510519F482E089835F
:101820003AC08823A9F0203080E0380780E04807DC
:1018300080E8580729F460E070E080E09FEC30C059
:10184000EE24FF248701E21AF30A040B150B02C0F1
:1018500079018A018EE1C82ED12CDC82CB82ED8207
:10186000FE820F831887C801B7010E94A80C019758
:101870001816190684F4082E04C0EE0CFF1C001F75
:10188000111F0A94D2F7ED82FE820F831887C81ABF
:10189000D90ADC82CB82BA82CE0101960E94F70C73
:1018A0002896E9E00C94A710ACE0B0E0EAE5FCE093
:1018B0000C94921069837A838B839C83CE0101966A
:1018C000BE016B5F7F4F0E94CC0D8D81823061F134
:1018D000823050F1843021F48E81882351F12EC062
:1018E0002F81388537FD20C06E812F3131051CF0E6
:1018F0006623F9F023C08EE190E0821B930B2985CB
:101900003A854B855C8504C0569547953795279554
:101910008A95D2F76623B1F0509540953095219580
:101920003F4F4F4F5F4F0EC020E030E040E050E0AF
:1019300009C02FEF3FEF4FEF5FE704C020E030E03A
:1019400040E050E8B901CA012C96E2E00C94AE10D8
:10195000EF92FF920F931F937B018C0180E0E816BA
:1019600080E0F80681E0080780E0180788F48FEF30
:10197000E816F1040105110531F028F088E090E047
:10198000A0E0B0E017C080E090E0A0E0B0E012C0BE
:1019900080E0E81680E0F80680E0080781E018079C
:1019A00028F088E190E0A0E0B0E004C080E190E0A1
:1019B000A0E0B0E020E230E040E050E0281B390B2E
:1019C0004A0B5B0B04C016950795F794E7948A952C
:1019D000D2F7F701EB5EFE4F8081281B31094109E8
:1019E0005109C9011F910F91FF90EF900895DF9267
:1019F000EF92FF920F931F93FC01E480F580068124
:101A00001781D1808081823048F480E090E0A0E1AD
:101A1000B0E0E82AF92A0A2B1B2BA5C0843009F470
:101A20009FC0823021F4EE24FF24870105C0E11419
:101A3000F1040105110519F4E0E0F0E096C06281BF
:101A400073819FEF623879070CF05BC022E83FEFAB
:101A5000261B370B2A3131052CF020E030E040E026
:101A600050E02AC0B801A701022E04C07695679500
:101A7000579547950A94D2F781E090E0A0E0B0E056
:101A800004C0880F991FAA1FBB1F2A95D2F7019780
:101A9000A109B1098E219F21A023B1230097A1059F
:101AA000B10521F081E090E0A0E0B0E09A01AB0147
:101AB000282B392B4A2B5B2BDA01C9018F779070C9
:101AC000A070B07080349105A105B10539F427FFED
:101AD00009C0205C3F4F4F4F5F4F04C0215C3F4F18
:101AE0004F4F5F4FE0E0F0E02030A0E03A07A0E089
:101AF0004A07A0E45A0710F0E1E0F0E079018A011A
:101B000027C06038710564F5FB01E158FF4FD8012B
:101B1000C7018F779070A070B07080349105A105D7
:101B2000B10539F4E7FE0DC080E490E0A0E0B0E03C
:101B300004C08FE390E0A0E0B0E0E80EF91E0A1FB9
:101B40001B1F17FF05C016950795F794E79431966C
:101B500087E016950795F794E7948A95D1F705C025
:101B6000EE24FF248701EFEFF0E06E2F67956627E4
:101B70006795902F9F77D794DD24D7948E2F8695E5
:101B8000492F462B582F5D29B701CA011F910F918C
:101B9000FF90EF90DF900895FC01DB0140815181BF
:101BA0002281622F6F7770E0221F2227221F9381EC
:101BB000892F880F822B282F30E0991F9927991F92
:101BC00011969C93119721153105A9F541155105E1
:101BD0006105710511F482E037C082E89FEF13962A
:101BE0009C938E9312979A01AB0167E0220F331FEB
:101BF000441F551F6A95D1F783E08C930DC0220FC7
:101C0000331F441F551F12968D919C911397019776
:101C100013969C938E931297203080E0380780E0D3
:101C2000480780E4580758F314962D933D934D933D
:101C30005C93179708952F3F310579F441155105AD
:101C40006105710519F484E08C93089564FF03C065
:101C500081E08C9312C01C9210C02F573040139615
:101C60003C932E93129783E08C9387E0440F551F8B
:101C7000661F771F8A95D1F7706414964D935D9314
:101C80006D937C93179708951F93DC01FB019C9142
:101C9000923008F447C08081823008F443C0943009
:101CA00051F411961C91843099F58181682F70E070
:101CB000611B71093FC0843021F0923031F48230D1
:101CC000B9F18181882389F12DC011961C9111975A
:101CD0008230F1F081811817D9F412962D913C9140
:101CE0001397828193818217930794F028173907FD
:101CF000BCF014968D919D910D90BC91A02D2481E6
:101D0000358146815781281739074A075B0718F440
:101D1000112341F00AC082179307A407B50740F4C6
:101D2000112319F061E070E005C06FEF7FEF02C092
:101D300060E070E0CB011F910895FC01838187FF73
:101D400024C080913D0290913E028E179F0721F49E
:101D500010923E0210923D0280913F02909140020B
:101D60008E179F0721F41092400210923F0280913B
:101D70004102909142028E179F0721F41092420275
:101D800010924102CF010E94DA0F80E090E00895A6
:101D90000F931F93CF93DF938C01EB01009731F4E6
:101DA0006115710519F420E030E038C081E090E061
:101DB0006EE070E00E94140FFC019C01009771F12D
:101DC00080E88383209771F0D387C28781E883837B
:101DD00080913D0290913E02892B21F4F0933E02C6
:101DE000E0933D0201151105C9F011870087838139
:101DF0008260838380913F0290914002892B71F42D
:101E0000F0934002E0933F028091410290914202A0
:101E1000892B21F4F0934202E0934102C901DF9142
:101E2000CF911F910F9108950F931F93CF93DF933D
:101E3000689F8001699F100D789F100D1124C801C3
:101E40000E94300FEC01009729F060E070E0A801DB
:101E50000E943210CE01DF91CF911F910F91089512
:101E6000CF93DF93BC018230910510F462E070E003
:101E7000A0914502B0914602ED01E0E0F0E040E0C3
:101E800050E021C0888199818617970769F48A817B
:101E90009B81309719F09383828304C0909346020C
:101EA00080934502FE0134C06817790738F4411564
:101EB000510519F08417950708F4AC01FE018A81D9
:101EC0009B819C01E9012097E9F641155105A9F193
:101ED000CA01861B970B049708F4BA01E0E0F0E012
:101EE0002AC08D919C91119784179507F9F4641776
:101EF000750781F412968D919C911397309719F084
:101F00009383828304C09093460280934502FD012F
:101F100032964CC0CA01861B970BFD01E80FF91FD2
:101F20006193719302978D939C9340C0FD018281D0
:101F300093819C01D9011097A1F680914302909161
:101F40004402892B41F480911702909118029093DA
:101F50004402809343024091190250911A024115A4
:101F6000510541F44DB75EB780911502909116026C
:101F7000481B590B2091430230914402CA01821B35
:101F8000930B8617970780F0AB014E5F5F4F841766
:101F9000950750F0420F531F509344024093430261
:101FA000F9016193719302C0E0E0F0E0CF01DF91AD
:101FB000CF910895CF93DF93009709F450C0EC01BF
:101FC00022971B821A82A0914502B0914602109777
:101FD00009F140E050E0AC17BD0708F1BB83AA83CC
:101FE000FE0121913191E20FF31FAE17BF0779F483
:101FF0008D919C911197280F391F2E5F3F4F398388
:10200000288312968D919C9113979B838A83411507
:10201000510571F4D0934602C093450220C0129638
:102020008D919C911397AD01009711F0DC01D3CFF6
:10203000FA01D383C28321913191E20FF31FCE17AE
:10204000DF0769F488819981280F391F2E5F3F4F80
:10205000FA01318320838A819B8193838283DF917C
:10206000CF910895DC0101C06D9341505040E0F7DD
:102070000895AA1BBB1B51E107C0AA1FBB1FA617CF
:10208000B70710F0A61BB70B881F991F5A95A9F721
:1020900080959095BC01CD01089597FB092E0726E8
:1020A0000AD077FD04D0E5DF06D000201AF4709541
:1020B00061957F4F0895F6F7909581959F4F08950C
:1020C000A1E21A2EAA1BBB1BFD010DC0AA1FBB1F3C
:1020D000EE1FFF1FA217B307E407F50720F0A21BAE
:1020E000B30BE40BF50B661F771F881F991F1A941B
:1020F00069F760957095809590959B01AC01BD0145
:10210000CF0108952F923F924F925F926F927F92EC
:102110008F929F92AF92BF92CF92DF92EF92FF92F7
:102120000F931F93CF93DF93CDB7DEB7CA1BDB0BA3
:102130000FB6F894DEBF0FBECDBF09942A88398848
:1021400048885F846E847D848C849B84AA84B9844F
:10215000C884DF80EE80FD800C811B81AA81B9815B
:10216000CE0FD11D0FB6F894DEBF0FBECDBFED016F
:062170000895F894FFCF72
:1021760028F91C58C94A0AF80848FFDFF70000008A
:10218600000000000000010202030303030404042C
:1021960004040404040505050505050505050505EE
:1021A60005050505050606060606060606060606CE
:1021B60006060606060606060606060606060606B9
:1021C600060606060607070707070707070707079E
:1021D6000707070707070707070707070707070789
:1021E6000707070707070707070707070707070779
:1021F6000707070707070707070707070707070769
:10220600070707070708080808080808080808084D
:102216000808080808080808080808080808080838
:102226000808080808080808080808080808080828
:102236000808080808080808080808080808080818
:102246000808080808080808080808080808080808
:1022560008080808080808080808080808080808F8
:1022660008080808080808080808080808080808E8
:1022760008080808080808080808080808080808D8
:0C228600080808080820004702000000BB
:00000001FF
